:10088D000001020304050607080931353A34363AEA
:03089D00313400F3
:10071B0012333F065B4F666D7D077F6F777C395ECB
:10072B007971400019473F065B4F666D7D077F6F00
:10073B00777C395E79717638373E735C4000000800
:0D074B00210001020304050607024500011C
:0D08B200759A1075D7E075D6FE438E14229E
:100759007594FFE4F59375960FF595F5B2F5B1F536
:1007690092F591D288D2A8C2B8C2B743BA01120889
:10077900B2D20043AF0143B501D2AFC2A3D2A0D2D6
:06078900A1D2A2F532220C
:0C08BF00E4FFE4FE0EBEFFFC0FBFFFF6DE
:0108CB00220A
:0300430002081997
:10081900C0E0E59A30E009859B30853032539AFE75
:0D082900E59A30E105C200539AFDD0E0329F
:030003000208CC24
:0D08CC00D2B785329B2000FDD200C2B732AA
:0607D700AE071FEE601BDF
:1007DD007512017513F4E5131513AC127002151291
:0B07ED004C60E700000000000080EB03
:0107F80022DE
:06083600C296C295D296A5
:10083C00E4FEC295EF1392CCEFC313FFD2950EBE1C
:02084C0008F0B2
:01084E002287
:10084F00E4FEC295EFC313FF30CC03430780D2956C
:04085F000EBE08EED3
:010863002272
:0708790074082DF8E64BFDA9
:0D088000120836AF0512083CC296D2952230
:0A08D90012083612084FC296D2959D
:0108E30022F2
:1004AF007F811208D9EF5470C4540F75F00AA4FE5F
:1004BF00EF540F2EF5127F831208D9EF5470C454E6
:1004CF000F75F00AA4FEEF540F2EF5137F85120857
:1004DF00D9EF5470C4540F75F00AA4FEEF540F2EC9
:1004EF00F5147F871208D9EF5470C4540F75F00AB2
:1004FF00A4FEEF540F2EF5167F8B1208D9EF547010
:10050F00C4540F75F00AA4FEEF540F2EF5157F8912
:10051F001208D9EF5470C4540F75F00AA4FEEF54AB
:10052F000F2EF5177F8D1208D9EF5470C4540F7525
:10053F00F00AA4FEEF540F2EF5187B007A00791203
:01054F002289
:1007F90075B0EF7596FFE4F5957594FFF593C2A36F
:10080900758901D2AFD2A9758CFC758A17D28C2251
:10078F00752B00752C07752900752A08752E0075B5
:10079F002F09C203C206C205C207D201C204C20298
:0407AF00E4F56022EB
:1008A00075BCEF00000000E5BC30E4FB53BCEFAFCB
:0108B000BD8A
:0108B1002224
:1007B3001208A0EFF4601A7F011207D71208A0EF06
:1007C300F4600E5307E07805EF08800103D8FDFFBE
:0307D300227F077B
:0107D6002200
:1002F1001207B38F60E5601470030203CA14605BD8
:100301001470030203D11470030203C314600302C7
:1003110003D7300614E52C2401FFE4352BFE7C00C5
:100321007D1812029C8C2B8D2C300514E52A24019A
:10033100FFE43529FE7C007D3C12029C8C298D2A2C
:100341002007030203D7E52F2401FFE4352EFE7CAD
:10035100007D3C12029C8C2E8D2F2230061FD3E58E
:100361002C9400E52B9400400CE52C24FFFFE52B99
:1003710034FFFE80047E007F178E2B8F2C30051FEB
:10038100D3E52A9400E5299400400CE52A24FFFFD7
:10039100E52934FFFE80047E007F3B8E298F2A30C1
:1003A1000734D3E52F9400E52E9400400CE52F246B
:1003B100FFFFE52E34FFFE80047E007F3B8E2E8FF3
:1003C1002F22D206C207C20522D207C206C20522C7
:0703D100D205C206C207229B
:1006CD0020B24A7F051207D730B2FDC203D204C251
:1006DD0001C206D205C207752B0085632C75290052
:1006ED0085622A752E0085612F20B2117F051207B4
:1006FD00D730B2FDC206C205C207D203221202F1E3
:0E070D00E560640760E31207B38F6080F3229B
:1003D80078087C007D007BFF7A08798D7E007F0A93
:1003E8001202761204AF78617C007D007E007F07E0
:1003F8001202761207B38F60E560B4030EE560B4AD
:1004080003071207B38F6080F4C2032003030204BA
:10041800AEC204D201E4FD7F8E1208807F811208EB
:10042800D9EF4480FD7F80120880AE2EAF2F7C006C
:100438007D0A12029C74082FF8E6C454F0FBAE2E15
:10044800AF2F7C007D0A12029C7F80120879AE29AA
:10045800AF2A7C007D0A12029C74082FF8E6C45467
:10046800F0FBAE29AF2A7C007D0A12029C7F821223
:100478000879AE2BAF2C7C007D0A12029C74082FE1
:10048800F8E6C454F0FBAE2BAF2C7C007D0A1202B8
:100498009C74082DF8E64BFD7F841208807D807FD0
:0604A8008E120880C20361
:0104AE00222B
:10055000900897E493FF12000EEFC454F0FEC0061B
:10056000900898E493FF12000ED0E02FF508900851
:100570009AE493FF12000EEFC454F0FEC0069008F8
:100580009BE493FF12000ED0E02FF50990089DE444
:1005900093FF12000EEFC454F0FEC00690089EE4D4
:1005A00093FF12000ED0E02FFCE4FD7F8E12088036
:1005B000AD047F80120880AD097F82120880AD08EB
:1005C0007F841208807F811208D9EF547FF531FDB6
:0C05D0007F801208807D807F8E020880F2
:10086400E4FD7F8E1208807DA97F901208807D8030
:050874007F8E020880E8
:03000B00020046AA
:10004600C0E0C0F0C0D075D000C000C004C005C07C
:1000560006C007758CFC758A17052DE52DB40803B7
:10006600752D007580007421252DF8E6F5A0300168
:1000760044E52D14601624FE601614601724FE60F5
:100086001714601E2407702AE563800EE56380144A
:10009600E5628006E562800CE56175F00A84244716
:1000A600800AE56175F00A84744725F0F8E6F58064
:1000B6008003855D8020040302016DE52D14601B1D
:1000C60024FE603C14603F24FE60601460712407C7
:1000D600600302016AAE2BAF2C8054AE2BAF2C7C92
:1000E600007D0A30060D12029C74472DF8E6448006
:1000F600FF800912029C74472DF8E6FF8F80806707
:10010600AE29AF2A8029AE29AF2A7C007D0A3005A8
:100116000D12029C74472DF8E64480FF80091202F6
:100126009C74472DF8E6FF8F80803CAE2EAF2F7C67
:10013600007D0A12029C74472FF8E6F5808028AEEF
:100146002EAF2F7C007D0A30070D12029C74472DBE
:10015600F8E64480FF800912029C74472DF8E6FFFA
:100166008F808003855D80300225E52D14600D04A7
:10017600701AE56075F00A842447800AE56075F018
:100186000A84744725F0F8E6F5808003855D80D003
:1001960007D006D005D004D000D0D0D0F0D0E032C1
:0E003500759D80E4F5BD75BCFF7F020207D704
:100668001207F912003512078F1207597F811208F5
:10067800D9EF30E70312055012086453320FE53200
:10068800540FFFBF0106754500754602E546640232
:10069800454570E77FC81207D71204AF78617C0020
:1006A8007D007E007F07120276E532540FFFBF02FD
:1006B800031206CD1203D87F811208D9EF30E7BBA9
:0506C80012055080B690
:030000000205DC1A
:0C05DC00787FE4F6D8FD758167020623E5
:1001A600E709F608DFFA8046E709F208DFFA803E3B
:1001B60088828C83E709F0A3DFFA8032E309F60828
:1001C600DFFA8078E309F208DFFA807088828C8390
:1001D600E309F0A3DFFA806489828A83E0A3F60844
:1001E600DFFA805889828A83E0A3F208DFFA804C1E
:1001F60080D280FA80C680D4806980F280338010F5
:1002060080A680EA809A80A880DA80E280CA80335D
:1002160089828A83ECFAE493A3C8C582C8CCC583D5
:10022600CCF0A3C8C582C8CCC583CCDFE9DEE780A5
:100236000D89828A83E493A3F608DFF9ECFAA9F024
:10024600EDFB2289828A83ECFAE0A3C8C582C8CC7A
:10025600C583CCF0A3C8C582C8CCC583CCDFEADE93
:10026600E880DB89828A83E493A3F208DFF980CCF5
:1002760088F0EF60010E4E60C388F0ED2402B404EE
:100286000050B9F582EB2402B4040050AF23234595
:0602960082239001F673C3
:10029C00BC000BBE0029EF8DF084FFADF022E4CC46
:1002AC00F875F008EF2FFFEE33FEEC33FCEE9DEC0F
:1002BC00984005FCEE9DFE0FD5F0E9E4CEFD22ED55
:1002CC00F8F5F0EE8420D21CFEADF075F008EF2F9F
:1002DC00FFED33FD4007985006D5F0F222C398FD90
:0502EC000FD5F0EA222D
:10000E00EF7E0024D0B40A00401B24F9B40A00404D
:10001E0011B41000400F24E0B40A004005B41000E3
:07002E00400374FFFEFF22F6
:1005E800020668E493A3F8E493A34003F68001F2BB
:1005F80008DFF48029E493A3F85407240CC8C33314
:10060800C4540F4420C8834004F456800146F6DFE2
:10061800E4800B010204081020408090071BE47E50
:10062800019360BCA3FF543F30E509541FFEE493D7
:10063800A360010ECF54C025E060A840B8E493A39E
:10064800FAE493A3F8E493A3C8C582C8CAC583CAC9
:10065800F0A3C8C582C8CAC583CADFE9DEE780BE81
:0107580000A0
:00000001FF
