:101791000C060309080C04060203010900A8C00095
:1017A1003F065B4F666D7D077F6F0008407337BF53
:0C17B1006D5EBF86DBCFE6EDFD87FFEF2D
:100ECE00013810013901013A00013700013B1102CE
:030EDE00350000DC
:1013FF00E4FF1216408F227F011216408F23E52241
:10140F006401702B1219ED1218111219EDEF04FB74
:10141F00C0031219ED1219C78F2C7528FF752910EB
:10142F00752A0D752B11D0037D0F7F0E1218AAE5AB
:10143F00236401702B1219ED1219B01219EDEF047C
:10144F00FBC0031219ED1219C78F2C7528FF7529D0
:10145F0010752A0D752B11D0037D0F7F0E1218AA50
:01146F00225A
:10128D007F051215B68F227F021215B68F23E4FF4C
:10129D001215B68F24E522640170281219751219E2
:1012AD00EDEF04FBC0031219ED1219C78F2C752831
:1012BD00FF752910752A0D752B11D0037D0F7F0E2B
:1012CD001218AAE523640170281219811219EDEF85
:1012DD0004FBC0031219ED1219C78F2C7528FF7569
:1012ED002910752A0D752B11D0037D0F7F0E121845
:0C12FD00AAE524B401061219ED12192F05
:0113090022C1
:10172F00E4FF1219CEEF7010E538B480047538104D
:10173F0022E53825E0F53822E538B41004753880F5
:10174F0022E538B4800475384022E538C313F538E4
:01175F002267
:10183A007F011219CEEF7010E539B4080475390129
:10184A0022E53925E0F53922E539B401047539086C
:08185A0022E539C313F5392220
:1017E800E53790179593FF1218E77F021219CEEF8D
:1017F800700CE537B40704E4F53722053722E537DE
:0918080070047537072215372220
:101043000536E53670020535E5384539F53BFF12BF
:1010530019DBAE35AF367C007D0512083FED4C70D1
:1010630020FF1219C7BF030312172F7F011219C7DD
:10107300BF030312183A7F021219C7BF03031217E3
:10108300E8AE35AF367C007D6412083FED4C70202E
:10109300FF1219C7BF020312172F7F011219C7BF0F
:1010A300020312183A7F021219C7BF02031217E88C
:1010B300AE35AF367C017DF412083FED4C7020FF56
:1010C3001219C7BF010312172F7F011219C7BF01DE
:1010D3000312183A7F021219C7BF01031217E8223D
:101470001218CA7F981217601216FD12188A1219D4
:1014800003E5384539FF1219DB7528FF75291075FA
:101490002A0D752B11E4F52C7B017D0F7F0E1218A0
:1014A000AA7BFF7A1379FF7F0412130A7BFF7A125B
:1014B000798D7F0712130A7BFF7A107943E4FF12BC
:0A14C000130A1219E11216BF80FB97
:09198C008B88898C88898F888979
:100EE10052007A868600868600868600868600867F
:090EF100860086860041006F09AD
:03002B000219D5E2
:0619D50053BCEFD20F32FB
:020A2900151F97
:100A2B00200F03020BD2C20F90006EE0B4090040FE
:100A3B0003020BB4900A46F8282873020A8D020AA7
:100A4B0061020A73020A9F020A61020A73020AB662
:100A5B00020A61020A73AFBDEFFEADBE7C00E42D4E
:100A6B00FFEC3E900070803CAFBDEFFEADBE7C0056
:100A7B00E42DFFEC3E900072F0A3EFF0751A01022B
:100A8B000BBAAFBDEFFEADBE7C00E42DFFEC3E908C
:100A9B0000748010AFBDEFFEADBE7C00E42DFFEC0B
:100AAB003E900076F0A3EFF0020BBAAFBDEFFEADB8
:100ABB00BE7C00E42DFFEC3E900078F0A3EFF090AD
:100ACB000078E0FEA3E07807CEC313CE13D8F9A8C5
:100ADB001FF6C394065013A81FE675F003A4247ADF
:100AEB00F582E43400F583E014F090006FE014F02D
:100AFB006003020BBA7409F0A81FE4F6A81FE6FF07
:100B0B00C394064003020BBAEF75F003A4247AF5E5
:100B1B0082E43400F583E0C39480502AE6FF75F03D
:100B2B0003A4247BF582E43400F583E0D394804066
:100B3B0040EF75F003A4247CF582E43400F5837454
:100B4B0001F0F51B802BA81FE6FF75F003A4247B97
:100B5B00F582E43400F583E0C394805014EF75F014
:100B6B0003A4247CF582E43400F5837402F0751B36
:100B7B0001A81FE6FF75F003A4247AF582E4340084
:100B8B00F583E0FEEF75F003A4247BF582E43400DB
:100B9B00F583EEF0E675F003A4247AF582E43400D5
:100BAB00F5837486F006020B0790006E74FFF090CD
:100BBB00006EE0D39407400374FFF090006EE004E6
:070BCB00F090198C93F5BCBA
:030BD200051F22DA
:02193F00151F72
:09194100A81FA61BE4F51BE6FF3C
:03194A00051F2254
:02194D00151F64
:09194F00A81FA61AE4F51AE6FF30
:03195800051F2246
:101760008F9D75BC88439720D2AD90004574FFF0E3
:10177000A3740AF0A37429F0A374FFF0A37419F002
:10178000A3743FF0A374FFF0A37419F0A3744DF099
:011790002236
:0719B9007B017A0079702226
:1015B600C3EF64809480403BD3EF648094855033BE
:1015C600EFFD3395E0FC90007C75F003ED1209C247
:1015D600EC75F003A42583F583E0FE90007C75F09E
:1015E60003ED1209C2EC75F003A42583F583E4F03C
:0515F600AF06227F0397
:0115FB0022CD
:04186200151F151F1A
:1018660012199EA81FA60608A607A81FE6FE08E6E8
:0F187600FF4E600BEF24FFFFEE34FFFE1219A7A9
:05188500051F051F22F4
:10188A0053B1EF43B2101219EAE4F5D975DA49D225
:10189A00DE90003F74FFF0A37418F0A37462F02284
:081387008E258F268C278D288E
:10138F0012199EEF4E7066AF28AE271219A7C3E54C
:10139F0026940AE5259400404BE47B18FAF9F8905F
:1013AF00179D1209A6120900C006C007AE25AF2669
:1013BF00AB07AA06E4F9F8D007D006120900AB076D
:1013CF00AA06AFF9EFFEADE97C00E42DFFEC3ECFAE
:1013DF002BCF3AAD07FCAF03AE0212191ED2D84382
:0F13EF00DA0180061219EA53DAFE7F02227F0329
:0113FE0022CC
:0C19690012199EEF4E7002FF227F012237
:100DE500E4F580900097E0FFB40800505F900DF99E
:100DF500F8282873020E11020E17020E1D020E238B
:100E0500020E29020E33020E3D020E47C2A3C2A2F4
:100E15008016C2A3C2A2801AC2A3C2A2801EC2A308
:100E2500C2A28022C2A3D2A2C2A1C2A08020C2A314
:100E3500D2A2C2A1D2A08016C2A3D2A2D2A1C2A020
:100E4500800CC2A3D2A2D2A1D2A08002D2A3C3EFAA
:100E5500648094885029900097E0FF3395E0FE74F4
:100E65008E2FF58274003EF583E0FF3395E0FE7426
:100E7500A12FF58274173EF583E493F580801E90CB
:100E85000097E0FFB408133395E0FE748E2FF582CA
:100E950074003EF583E0F5808003E4F58090008DD5
:100EA500E0FF900097E004FEF0D3EF6480F8EE6475
:100EB50080984014E0D36480948850047408F0222C
:090EC50090008CE0900097F022EF
:10190300E4F5937594FF5395F043960F90002A7472
:0B191300FFF0A3740DF0A374E5F022B8
:0919950090008CEFF0A3EDF022AC
:1018AA0090008EEFF0A3EDF0A3EBF0A3E528F0A3F0
:1018BA00E529F0A3E52AF0A3E52BF0A3E52CF02215
:0619DB00900096EFF022DF
:100EFA00011E00490099949400949400949400412E
:030F0A0000981E2E
:020BD500151FEA
:100BD70020B206900099E014F020B30690009CE044
:100BE70014F020970690009FE014F0900098E0140E
:100BF700F06003020CF5741EF0A81FE4F6A81FE6C8
:100C0700FFC3648094834003020CF5EF3395E0FE45
:100C170090009975F003EF1209C2EE75F003A42551
:100C270083F583E0C39480503990009A75F003EF01
:100C37001209C2EE75F003A42583F583E0D39480EF
:100C4700405AE6FF3395E0FE90009B75F003EF12E4
:100C570009C2EE75F003A42583F5837401F0F51E30
:100C6700803AA81FE6FF3395E0FE90009A75F003DF
:100C7700EF1209C2EE75F003A42583F583E0C39450
:100C870080501990009B75F003EF1209C2EE75F0C2
:100C970003A42583F5837402F0751E01A81FE6FFE0
:100CA700FD3395E0FC90009975F003ED1209C2EC55
:100CB70075F003A42583F583E0FE90009A75F00391
:100CC700ED1209C2EC75F003A42583F583EEF0EF6E
:100CD7003395E0FE90009975F003EF1209C2EE75A7
:0E0CE700F003A42583F5837494F006020C0438
:030CF500051F22B6
:02195B00151F56
:09195D00A81FA61EE4F51EE6FF1A
:03196600051F2238
:1018CA0090003074FFF0A37419F0A3745BF09000D9
:0D18DA002D74FFF0A3740BF0A374D5F02261
:10164000EF600764016003BF0233EFFD3395E0FCF8
:1016500090009B75F003ED1209C2EC75F003A42510
:1016600083F583E0FE90009B75F003ED1209C2EC58
:0F16700075F003A42583F583E4F0AF06227F0312
:01167F002248
:100F0D004100000A4100290A41006D0A040E00004B
:100F1D0000000114004600670000FFFF8FFFC10DA8
:100F2D00C105C108C101C10E60240005FF19F0FF04
:100F3D0019F0FF19F0FF19F0FF19F0FF19F0FF1963
:100F4D00F0FF19F0FF19F0FF19F0FF19F0FF19F07C
:100F5D006036002AFF19F0FF19F0FF19E7FF19F0AD
:100F6D00FF19E7FF19F0FF19E7FF19F0FF19F0FF5F
:100F7D0019F0FF19E7FF19E7FF19E7FF19E7FF1947
:0A0F8D00F0FF19F0FF19F0FF19F052
:0119F00022D4
:0319E7007F00225C
:10156F00438E805389F07BE07A28790178009017B9
:10157F009D1209A61215FCEFF404F58A7BE07A2878
:10158F007901780090179D1209A61215FCC3E49FEC
:10159F00FFE49EFE74019DFDE49CFC780812099205
:0715AF008F8CD28CD2A9221F
:03000B0002151DBE
:04151D00C0E0C0D09A
:10152100D5080A75084C300D020514D20DA20372BC
:10153100045036150AE50A7030850C0AD207300AC4
:1015410017E50D6007150D438F01801D538FFEC2F6
:10155100B5D51615C20A8011050BE50BD3940640CB
:0915610008C203E5136002D20682
:05156A00D0D0D0E032FA
:1014CA00300E47C20E90179D1209A6781012099283
:1014DA008E1C8F1D900003E0FEA3E0FFE4FCFD7B61
:1014EA0019FAF9F8120875C006C007AE1CAF1DAB91
:1014FA0007AA06E4F9F8D007D0061215FC780312F9
:10150A000992900065EEF0A3EFF0900065E0FEA36B
:02151A00E0FFF0
:01151C0022AC
:09199E00900067E0FEA3E0FF22C7
:0919A700900067EEF0A3EFF022BE
:10191E0090006BEEF0A3EFF0900069ECF0A3EDF009
:01192E002296
:0319EA00C2B42262
:03003B00020F9B16
:100F9B00C0E0C083C082C0D075D000C004C005C003
:030FAB0006C00776
:100FAE0030DF04C2DF807D30DA04C2DA807630D9D9
:100FBE003DC2D9AFFBEFFEADEB7C00E42DFFEC3E66
:100FCE0020000E900001F0A3EFF075DB11D200802F
:100FDE0053FE900001E0FCA3E0FDC3EF9DFFEE9CED
:100FEE00A3F0A3EFF075DB00C200D20E803630D82E
:100FFE0033C2D8900067E07002A3E06022B2B490D2
:10100E000069E0FEA3E0F5EAEEF5FAA3E0FEA3E048
:10101E00FF90006AE02FF0900069E03EF08005C27C
:04102E00B453DAFEDF
:10103200D007D006D005D004D0D0D082D083D0E063
:01104200327B
:0619E10012156FD2AF22C7
:101202003004047F0180027F00200A047E018002F4
:101212007E00EE5F6074E515C395095068300236B2
:10122200750D01E515131313541FAB17AA18A9194D
:10123200F582758300120800FFE515540704FEEFDE
:10124200A806088002C333D8FC30D7057516038080
:101252002F751601802AAB17AA18A91975F002E595
:1012620015A4F58285F083120800F50DE51575F0D9
:1012720002A429F9EA35F0FA900001120800F516E5
:0A1282000515D20A22C204438F10A2
:01128C00223F
:100CF800900000E014F0701F740AF0D205900029EB
:100D0800E014F07012740AF0D20890006DE014F04C
:100D18007005740AF0D20190002AA3E0FAA3E0F962
:100D28001209CE90002DA3E0FAA3E0F91209CE90A3
:100D38000039A3E0FAA3E0F91209CE900045A3E038
:100D4800FAA3E0F91209CE900054A3E0FAA3E0F95F
:100D58001209CE90005DA3E0FAA3E0F91209CE9043
:100D6800004BA3E0FAA3E0F91209CEEF600C900063
:100D78001DA3E0FAA3E0F91209CE90004EA3E0FA11
:100D8800A3E0F91209CEEF600E900020A3E0FAA3C9
:100D9800E0F91209CED20BE512D394004016D51211
:100DA8003030090C900023A3E0FAA3E0F91209CE31
:100DB800D20C801D900051A3E0FAA3E0F91209CEED
:100DC800EF600E900023A3E0FAA3E0F91209CED257
:0D0DD8000C900005A3E0FAA3E0F90209CE9B
:1010E30090003FA3E0FAA3E0F91209CE900042A3D7
:1010F300E0FAA3E0F91209CE900033A3E0FAA3E0EB
:10110300F91209CE900008A3E0FAA3E0F91209CE80
:10111300900030A3E0FAA3E0F91209CEEF600C903F
:101123000011A3E0FAA3E0F91209CE900036A3E080
:10113300FAA3E0F91209CEEF600C900017A3E0FACE
:10114300A3E0F91209CE900048A3E0FAA3E0F91254
:1011530009CEEF600C90001AA3E0FAA3E0F912099C
:10116300CE30060EC206900026A3E0FAA3E0F912E1
:0311730009CE2280
:1016800090000BA3E0FAA3E0F91209CE90003CA36E
:10169000E0FAA3E0F91209CEEF600C900014A3E089
:1016A000FAA3E0F91209CE900057A3E0FAA3E0F9FB
:0F16B0001209CE90005AA3E0FAA3E0F90209CE86
:1017BD00AF11AE10AD0FAC0E9000601209B69000D7
:1017CD0064E514F0E4F511F510F50FF50EF5149030
:0B17DD00000EA3E0FAA3E0F90209CE21
:1016BF00300705C207121202300D05C20D120CF8C9
:1016CF00300505C2051210E3300805C20812168056
:1016DF00300105C2011217BDE5112401F511E435E2
:0E16EF0010F510E4350FF50FE4350EF50E2260
:10130A008B228A238924EFB40C00507090131DF8A5
:10131A0028287302134102134602134B0213500288
:10132A00135502135A02135F02136402136902135C
:10133A006E021373021378900005803590000880BE
:10134A003090000B802B90000E8026900011802197
:10135A00900017801C900014801790001A80129039
:10136A00001D800D900020800890002380039000CB
:0D137A0026E522F0A3E523F0A3E524F022F0
:0719C0007B017A007960222F
:030F970001340022
:1016FD001219037D07E4FF12199553C0E143B41E7F
:10170D0053B3E1C3E53464809483501274302534AF
:10171D00F8E4F6742D2534F8E4F6053480E5E4F5A7
:02172D00332265
:101811008F24742D2FF8E6F96403601CE9FF7E0024
:101821007C037DE812082DE975F014A4FDACF012DB
:091831001387742D2524F806220A
:0919B000742D2FF8E660011622E7
:0719C700742D2FF8E6FF224A
:10192F0074302FF8E670047E0180027E00A6062236
:0C197500E533B40204E4F533220533220C
:0B198100E53370047533022215332299
:0319ED00AF3322F3
:0719CE0074302FF8E6FF2240
:1018E700EF131313541F1392C1EF1313543F1392A3
:0C18F700C2EFC3131392C3EF1392C4227C
:0300000002117674
:0C117600787FE4F6D8FD75813B0211BDC6
:10080000BB010CE58229F582E5833AF583E02250AD
:1008100006E92582F8E622BBFE06E92582F8E222F7
:0D082000E58229F582E5833AF583E4932211
:10082D00EF8DF0A4A8F0CF8CF0A428CE8DF0A42EDF
:02083D00FE2299
:10083F00C2D5EC30E709B2D5E4C39DFDE49CFCEED4
:10084F0030E715B2D5E4C39FFFE49EFE1209D4C36F
:10085F00E49DFDE49CFC80031209D430D507C3E46A
:06086F009FFFE49EFE2243
:10087500E88FF0A4CC8BF0A42CFCE98EF0A42CFC22
:100885008AF0EDA42CFCEA8EF0A4CDA8F08BF0A4A0
:100895002DCC3825F0FDE98FF0A42CCD35F0FCEBFF
:1008A5008EF0A4FEA9F0EB8FF0A4CFC5F02ECD39C4
:0F08B500FEE43CFCEAA42DCE35F0FDE43CFC2231
:1008C40075F008758200EF2FFFEE33FECD33CDCCEB
:1008D40033CCC58233C5829BED9AEC99E58298406E
:1008E4000CF582EE9BFEED9AFDEC99FC0FD5F0D64B
:1008F400E4CEFBE4CDFAE4CCF9A88222B800C1B975
:100904000059BA002DEC8BF084CFCECDFCE5F0CBB2
:10091400F97818EF2FFFEE33FEED33FDEC33FCEBEB
:1009240033FB10D703994004EB99FB0FD8E5E4F9A6
:10093400FA227818EF2FFFEE33FEED33FDEC33FC93
:10094400C933C910D7059BE99A4007EC9BFCE99A87
:10095400F90FD8E0E4C9FAE4CCFB2275F010EF2FCC
:10096400FFEE33FEED33FDCC33CCC833C810D707CC
:100974009BEC9AE899400AED9BFDEC9AFCE899F807
:0E0984000FD5F0DAE4CDFBE4CCFAE4C8F9229A
:1015FC00C2D5E830E70FB2D5E4C39BFBE49AFAE41A
:10160C0099F9E498F8EC30E717B2D51216321209B2
:10161C0000E4C39BFBE49AFAE499F9E498F880039C
:10162C0012090030D50DE4C39FFFE49EFEE49DFD3E
:04163C00E49CFC220C
:10099200E86010ECA2E713FCED13FDEE13FEEF137B
:0409A200FFD8F02268
:1009A600E493FC740193FD740293FE740393FF2297
:0C09B600ECF0A3EDF0A3EEF0A3EFF022B4
:0C09C200A42582F582E5F03583F5832240
:0609CE008A838982E473B4
:10118200021470E493A3F8E493A34003F68001F2FF
:1011920008DFF48029E493A3F85407240CC8C3336E
:1011A200C4540F4420C8834004F456800146F6DF3D
:1011B200E4800B0102040810204080900ECEE47EF1
:1011C200019360BCA3FF543F30E509541FFEE49332
:1011D200A360010ECF54C025E060A840B8E493A3F9
:1011E200FAE493A3F8E493A3C8C582C8CAC583CA24
:1011F200F0A3C8C582C8CAC583CADFE9DEE780BEDC
:010F9A000056
:1009D400BC000BBE0029EF8DF084FFADF022E4CC07
:1009E400F875F008EF2FFFEE33FEEC33FCEE9DECD0
:1009F400984005FCEE9DFE0FD5F0E9E4CEFD22ED16
:100A0400F8F5F0EE8420D21CFEADF075F008EF2F5F
:100A1400FFED33FD4007985006D5F0F222C398FD50
:050A24000FD5F0EA22ED
:00000001FF
