:0A00000002232743D8042280FE22C9
:10000B00022753122CC453B1F353B2F353917F53C2
:03001B00927F22AF
:0F0023000224E4E5D830E20653D8FB120BFF228B
:03003B000228FC9C
:100043000223C77B007A007DF47C437F0312000305
:10005300900232E0FF25E025E0241EF582E434041B
:10006300F583E0FCA3E0FDA3E0FEA3E0FF5420FF43
:10007300EE7400FEED7400FDEC7400FCEF602A905A
:100083000486E0FFB4010D900484E0FF7006900441
:100093007D7402F0900486E0FFB4020D900485E0C5
:1000A300FF700690047E7402F0900232E0FF25E0B8
:1000B30025E0241EF582E43404F583E0FCA3E0FD8F
:1000C300A3E0FEA3E0FF5440FFEE7400FEED7400D6
:1000D300FDEC7400FCEF6028900486E0FFB4010C93
:1000E300900484E0FF700590047D04F0900486E0A2
:1000F300FFB4020C900485E0FF700590047E04F0C9
:10010300900486E0FF64016003020235900484E0FA
:10011300FF600302023590047DE0FF640160030287
:1001230001A7900232E0FF25E025E0241EF582E4DA
:100133003404F583E0FCA3E0FDA3E0FEA3E0FF5459
:1001430080FFEE7400FEED7400FDEC7400FCEF60C4
:100153001290047FE0FFB40904E4F0800690047F6A
:10016300E004F0900232E0FF25E025E0241EF58252
:10017300E43404F583E0FCA3E0FDA3E0FEA3E0FF89
:100183007400FFEE5401FEED7400FDEC7400FCEE10
:10019300601290047FE0FF70057409F080069004FC
:1001A3007FE014F090047DE0FF64026003020235F7
:1001B300900232E0FF25E025E0241EF582E43404BA
:1001C300F583E0FCA3E0FDA3E0FEA3E0FF5480FF82
:1001D300EE7400FEED7400FDEC7400FCEF60129011
:1001E3000481E0FFB40904E4F08006900481E00494
:1001F300F0900232E0FF25E025E0241EF582E4348E
:1002030004F583E0FCA3E0FDA3E0FEA3E0FF74009C
:10021300FFEE5401FEED7400FDEC7400FCEE601281
:10022300900481E0FF70057409F08006900481E07A
:1002330014F0900486E0FF640260030203679004F5
:1002430085E0FF600302036790047EE0FF640160C2
:10025300030202D9900232E0FF25E025E0241EF5D7
:1002630082E43404F583E0FCA3E0FDA3E0FEA3E015
:10027300FF5480FFEE7400FEED7400FDEC7400FC8F
:10028300EF6012900480E0FFB40904E4F08006906C
:100293000480E004F0900232E0FF25E025E0241E14
:1002A300F582E43404F583E0FCA3E0FDA3E0FEA3C0
:1002B300E0FF7400FFEE5401FEED7400FDEC7400EA
:1002C300FCEE6012900480E0FF70057409F0800674
:1002D300900480E014F090047EE0FF640260030267
:1002E3000367900232E0FF25E025E0241EF582E457
:1002F3003404F583E0FCA3E0FDA3E0FEA3E0FF5498
:1003030080FFEE7400FEED7400FDEC7400FCEF6002
:1003130012900482E0FFB40904E4F08006900482A2
:10032300E004F0900232E0FF25E025E0241EF58290
:10033300E43404F583E0FCA3E0FDA3E0FEA3E0FFC7
:100343007400FFEE5401FEED7400FDEC7400FCEE4E
:100353006012900482E0FF70057409F08006900437
:1003630082E014F0900232E0FF25E025E0241EF540
:1003730082E43404F583E0FCA3E0FDA3E0FEA3E004
:10038300FF7400FFEE5402FEED7400FDEC7400FCFC
:10039300EE7003020046900486E0FF64027033901F
:1003A3000482E0FF75F00AA4FF900480E0FEEF2EC4
:1003B300FF90047CF09004857401F090047CE0FFCE
:1003C3009002D4F0C28C7B017A0279D40D1221D928
:1003D300D28C900486E0FF6401600302004690041F
:1003E30081E0FF75F00AA4FF90047FE0FEEF2EFF8B
:1003F30090047BF0900484E0FF7006900483E00493
:10040300F0900483E0FF900489F090047BE0FF9078
:1004130002D4E0FEB507069004847401F090047BD7
:10042300E0FF9002D4E0FEC39F500690048774015E
:10043300F090047BE0FF9002D4E0FED39F500302D0
:1004430000469004877402F00200462290FFFC12DB
:100453000BDB120B6C7B0A7A00790078008524830E
:10046300852582E0FCA3E0FDA3E0FEA3E0FF120AE2
:1004730081AC00AD01AE02AF0374432FF582742D3E
:100483003EF583E493FF900491F0852483852582D0
:10049300C083C082E0FCA3E0FDA3E0FEA3E0FF7BFA
:1004A3000A7A0079007800120A81D082D083120B75
:1004B3006C7B0A7A0079007800852483852582E0A5
:1004C300FCA3E0FDA3E0FEA3E0FF120A81AC00ADB4
:1004D30001AE02AF0374432FF582742D3EF583E41E
:1004E30093FF900490F0852483852582C083C08286
:1004F300E0FCA3E0FDA3E0FEA3E0FF7B0A7A007922
:10050300007800120A81D082D083120B6C7B0A7AA6
:100513000079007800852483852582E0FCA3E0FD33
:10052300A3E0FEA3E0FF120A81AC00AD01AE02AF6F
:100533000374432FF582742D3EF583E493FF9004F7
:100543008FF0852483852582C083C082E0FCA3E0ED
:10055300FDA3E0FEA3E0FF7B0A7A00790078001296
:100563000A81D082D083120B6C7B0A7A00790078DF
:1005730000852483852582E0FCA3E0FDA3E0FEA3A0
:10058300E0FF120A81AC00AD01AE02AF0374432F4A
:10059300F582742D3EF583E493FF90048EF0852459
:1005A30083852582C083C082E0FCA3E0FDA3E0FE37
:1005B300A3E0FF7B0A7A0079007800120A81D082D7
:1005C300D083120B6C7B0A7A007900780085248330
:1005D300852582E0FCA3E0FDA3E0FEA3E0FF120A71
:1005E30081AC00AD01AE02AF0374432FF582742DCD
:1005F3003EF583E493FF90048DF085248385258263
:10060300C083C082E0FCA3E0FDA3E0FEA3E0FF7B88
:100613000A7A0079007800120A81D082D083120B03
:100623006C7B0A7A0079007800852483852582E033
:10063300FCA3E0FDA3E0FEA3E0FF120A81AC00AD42
:1006430001AE02AF0374432FF582742D3EF583E4AC
:1006530093FF90048CF0852483852582C083C08218
:10066300E0FCA3E0FDA3E0FEA3E0FF7B0A7A0079B0
:10067300007800120A81D082D083120B6C7B0A7A35
:100683000079007800852483852582E0FCA3E0FDC2
:10069300A3E0FEA3E0FF120A81AC00AD01AE02AFFE
:1006A3000374432FF582742D3EF583E493FF900486
:1006B3008BF0852483852582C083C082E0FCA3E080
:1006C300FDA3E0FEA3E0FF7B0A7A00790078001225
:1006D3000A81D082D083120B6C7B0A7A007900786E
:1006E30000852483852582E0FCA3E0FDA3E0FEA32F
:1006F300E0FF120A81AC00AD01AE02AF0374432FD9
:10070300F582742D3EF583E493FF90048AF08524EB
:1007130083852582C083C082E0FCA3E0FDA3E0FEC5
:10072300A3E0FF7B0A7A0079007800120A81D08265
:10073300D083120B6C900004120BDB22900492EE18
:10074300F0A3EFF0A3ECF0A3EDF0900494E0FEA38C
:10075300E0FF7806C333CE33CED8F9FF74002FF50C
:100763008274003EF583AF82FEEF2440FFEE340037
:10077300FE7F00FF7E00900494E0FCA3E0FD900266
:100783004075F012120BA9EC75F012A42583F583C2
:10079300EFF0900494E0FEA3E0FF7806C333CE337A
:1007A300CED8F9FF74002FF58274003EF583AF8233
:1007B300EF2440FF900494E0FCA3E0FD9002417518
:1007C300F012120BA9EC75F012A42583F583EFF058
:1007D300900492E0FEA3E0FF7F00EEFF7E00A3E023
:1007E300FCA3E0FD90024275F012120BA9EC75F028
:1007F30012A42583F583EFF0900492E0FEA3E0FFBB
:10080300A3E0FCA3E0FD90024375F012120BA9ECE8
:1008130075F012A42583F583EFF0900494E0FEA312
:10082300E0FF122C2FEFF46032900494E0FEA3E07B
:10083300FF122C2FEF75F015A42436F8FF900494C3
:10084300E0FCA3E0FD90024475F012120BA9EC75D5
:10085300F012A42583F583EFF0801C900494E0FE4E
:10086300A3E0FF90024475F012120BA9EE75F0128B
:10087300A42583F583E4F0900496E0FCA3E0FDA3B4
:10088300E0FEA3E0FF7400FFEE7400FEED7400FDD4
:10089300EC7818120B24900494E0FCA3E0FD900282
:1008A3003C75F012120BA9EC75F012A42583F583A5
:1008B300EFF0900496E0FCA3E0FDA3E0FEA3E0FFCD
:1008C3007400FFEE7400FEEDEC7400FC7810120B64
:1008D30024900494E0FCA3E0FD90023D75F0121215
:1008E3000BA9EC75F012A42583F583EFF090049621
:1008F300E0FCA3E0FDA3E0FEA3E0FF7400FFEEED48
:100903007400FDEC7400FC7808120B24900494E04E
:10091300FCA3E0FD90023E75F012120BA9EC75F0FA
:1009230012A42583F583EFF0900496E0FCA3E0FD89
:10093300A3E0FEA3E0FFEE7400FEED7400FDEC7493
:1009430000FC900494E0FCA3E0FD90023F75F012DC
:10095300120BA9EC75F012A42583F583EFF0900434
:1009630094E0FEA3E0FF74292FF58274023EF58321
:1009730074FFF090049AE0FF900494E0FCA3E0FD80
:1009830074202DF58274023CF583EFF0900228E089
:10099300FF900494E0FCA3E0FDFEF87401088002DC
:1009A300C333D8FCFEEF4EFF900228F022BB0106B2
:1009B30089828A83E0225002E722BBFE02E3228976
:1009C300828A83E49322BB010CE58229F582E583C5
:1009D3003AF583E0225006E92582F8E622BBFE06BB
:1009E300E92582F8E222E58229F582E5833AF58357
:1009F300E49322E88FF0A4CC8BF0A42CFCE98EF0D6
:100A0300A42CFC8AF0EDA42CFCEA8EF0A4CDA8F073
:100A13008BF0A42DCC3825F0FDE98FF0A42CCD3537
:100A2300F0FCEB8EF0A4FEA9F0EB8FF0A4CFC5F0A1
:100A33002ECD39FEE43CFCEAA42DCE35F0FDE43C9A
:100A4300FC2275F008758200EF2FFFEE33FECD33E5
:100A5300CDCC33CCC58233C5829BED9AEC99E5822C
:100A630098400CF582EE9BFEED9AFDEC99FC0FD5B8
:100A7300F0D6E4CEFBE4CDFAE4CCF9A88222B800A8
:100A8300C1B90059BA002DEC8BF084CFCECDFCE573
:100A9300F0CBF97818EF2FFFEE33FEED33FDEC3397
:100AA300FCEB33FB10D703994004EB99FB0FD8E51C
:100AB300E4F9FA227818EF2FFFEE33FEED33FDEC65
:100AC30033FCC933C910D7059BE99A4007EC9BFC5B
:100AD300E99AF90FD8E0E4C9FAE4CCFB2275F010E7
:100AE300EF2FFFEE33FEED33FDCC33CCC833C8100C
:100AF300D7079BEC9AE899400AED9BFDEC9AFCE83A
:100B030099F80FD5F0DAE4CDFBE4CCFAE4C8F92286
:100B1300EB9FF5F0EA9E42F0E99D42F0E89C45F038
:100B230022E8600FECC313FCED13FDEE13FEEF138D
:100B3300FFD8F1227401FF3395E0FEFDFCA3A3A3CC
:100B4300E02FFFF0E582158270021583E03EFEF090
:100B5300E582158270021583E03DFDF0E582158282
:100B630070021583E03CFCF022ECF0A3EDF0A3EE61
:100B7300F0A3EFF022A8828583F0D083D082120BFA
:100B83008F120B8F120B8F120B8FE473E493A3C599
:100B930083C5F0C583C8C582C8F0A3C583C5F0C5A6
:100BA30083C8C582C822A42582F582E5F03583F582
:100BB3008322D083D082F8E4937012740193700D72
:100BC300A3A393F8740193F5828883E47374029367
:100BD3006860EFA3A3A380DFE5252582F582E524E2
:100BE3003583F583B524048582252210AF068582DB
:100BF30025F52422858225F524D2AF229004ACE585
:100C030015F0AF127E00EF7F00FEAD137C00EF2DD9
:100C1300FFEE3CFEA3F0A3EFF0AF107E00EF7F00EA
:100C2300FEAD11EF2DFFEE3CFEA3F0A3EFF0900419
:100C3300ACE0FFB401041227C1229004ACE0FF64CE
:100C4300027054900442E0FF900232E0FEF8740117
:100C5300088002C333D8FCFEEF4EFF900442F090AD
:100C63000232E0FF25E025E0241EF582E43404F59A
:100C730083120B78000020009004ADE0FEA3E0FF98
:100C8300900232E0FD25E024C3F582E43402F583CB
:100C9300EEF0A3EFF0809F9004ACE0FF6403705C80
:100CA300900442E0FF900232E0FEF87401088002F3
:100CB300C333D8FCFEEF4EFF900442F09004ADE046
:100CC300FEA3E0FFE4FCFD900232E0FB25E025E01B
:100CD300241EF582E43404F583120B6C9004AFE018
:100CE300FEA3E0FF900232E0FD25E024C3F582E499
:100CF3003402F583EEF0A3EFF0020C399004ACE07C
:100D0300FF701F900228E0FF900232E0FEF87401AA
:100D1300088002C333D8FCFEF4FEEF5EFF90022886
:100D2300F0229004ACE0FFB40410A3E0FEA3E0FFC4
:100D3300A3E0FCA3E0FD122A83229004ACE0FFB4FD
:100D4300050AA3E0FEA3E0FF121AB0229004ACE070
:100D5300FFB40614A3E0FEA3E0FF12206BEF7003C1
:100D6300020C3922020C39229004ACE0FF640760C4
:100D730003020E31A3E0FEA3E0FFF8740108800232
:100D8300C333D8FCFF900442E0FEEF5EFF70030222
:100D93000E319004ADE0FEA3E0FF7802C333CE33FF
:100DA300CED8F9FF741E2FF58274043EF583E0F864
:100DB300A3E0F9A3E0FAA3E0FB9004AFE0FEA3E015
:100DC300FFE4FCFDEF5BFFEE5AFEEDEE4F605F903C
:100DD300043EE0FCA3E0FDA3E0FEA3E0FFC004C0EB
:100DE30005C006C0079004ADE0FEA3E0FF7802C390
:100DF30033CE33CED8F9FF741E2FF58274043EF53B
:100E030083D007D006D005D004120B6C900442E0C7
:100E1300FF9004ADE0FCA3E0FDFEF874010880023E
:100E2300C333D8FCFEF4FEEF5EFF900442F02212BF
:100E3300157D900465E0FF30E01A90043EE0FCA3CA
:100E4300E0FDA3E0FEA3E0FF4401FFEEEDEC900420
:100E53003E120B6C900465E0FF30E11A90043EE013
:100E6300FCA3E0FDA3E0FEA3E0FF4404FFEEEDECF2
:100E730090043E120B6C900465E0FF30E21A90047C
:100E83003EE0FCA3E0FDA3E0FEA3E0FF4410FFEE81
:100E9300EDEC90043E120B6C900465E0FF30E31A16
:100EA30090043EE0FCA3E0FDA3E0FEA3E0FF44804A
:100EB300FFEEEDEC90043E120B6C900465E0FF3006
:100EC300E41A90043EE0FCA3E0FDA3E0FEA3E0FFF0
:100ED300EE4401FEEDEC90043E120B6C900465E0D1
:100EE300FF30E51A90043EE0FCA3E0FDA3E0FEA37F
:100EF300E0FF4420FFEEEDEC90043E120B6C9004F7
:100F030065E0FF30E61A90043EE0FCA3E0FDA3E0B9
:100F1300FEA3E0FF4440FFEEEDEC90043E120B6CA9
:100F2300900465E0FF30E71A90043EE0FCA3E0FD87
:100F3300A3E0FEA3E0FFEE4402FEEDEC90043E12BC
:100F43000B6C900464E0FF30E01A90043EE0FCA3D5
:100F5300E0FDA3E0FEA3E0FF4402FFEEEDEC90040E
:100F63003E120B6C900464E0FF30E11A90043EE003
:100F7300FCA3E0FDA3E0FEA3E0FF4408FFEEEDECDD
:100F830090043E120B6C900464E0FF30E21A90046C
:100F93003EE0FCA3E0FDA3E0FEA3E0FFEE4404FE7D
:100FA300EDEC90043E120B6C900464E0FF30E31A06
:100FB30090043EE0FCA3E0FDA3E0FEA3E0FFEE44CB
:100FC30004FEEDEC90043E120B6C900464E0FF30E1
:100FD300E41A90043EE0FCA3E0FDA3E0FEA3E0FFDF
:100FE300EE4404FEEDEC90043E120B6C900464E0BE
:100FF300FF30E51A90043EE0FCA3E0FDA3E0FEA36E
:10100300E0FFEE4404FEEDEC90043E120B6C900402
:1010130064E0FF30E61A90043EE0FCA3E0FDA3E0A9
:10102300FEA3E0FFEE4404FEEDEC90043E120B6CD5
:10103300900464E0FF30E71A90043EE0FCA3E0FD77
:10104300A3E0FEA3E0FFEE4404FEEDEC90043E12A9
:101053000B6C22900486E0FF64016003021122906E
:10106300047BE0FF9002D4E0FEB50710FF600302AB
:10107300112290047BE0FF6003021122902DB1E462
:1010830093FF90048AF0902DB2E493FF90048BF0C9
:10109300902D44E493FF90048CF0902D63E493FF30
:1010A30090048DF0902D63E49390048FF090048767
:1010B300E0FFB4010A902DB8E493FF90048EF09002
:1010C3000487E0FFB4020A902D91E493FF90048E0D
:1010D300F090047DE0FFB4011F900481E0FF902DA8
:1010E3004393FF900490F090047FE0FF902D43938F
:1010F300FF4480FF900491F090047DE0FFB4021F51
:10110300900481E0FF902D4393FF4480FF9004906F
:10111300F090047FE0FF902D4393FF900491F090B3
:101123000486E0FF640260030211B5902DB193FFC2
:1011330090048AF0902DB2E493FF90048BF0902DED
:1011430045E493FF90048CF0902D63E493FF9004A7
:101153008DF0902D63E49390048EF0902D63E493CF
:1011630090048FF090047EE0FFB4011F900482E0AE
:10117300FF902D4393FF900490F0900480E0FF9044
:101183002D4393FF4480FF900491F090047EE0FF91
:10119300B4021F900482E0FF902D4393FF4480FF2D
:1011A300900490F0900480E0FF902D4393FF90040F
:1011B30091F0900486E0FF640160030210569004EE
:1011C3007BE0FF9002D4E0FE6F6003021056E0FF65
:1011D300700302105690047BE0FF700302105690D8
:1011E3002D8AE493FF90048AF0902D98E493FF9066
:1011F300048BF0902D88E493FF90048CF0902D964F
:10120300E493FF90048DF0902D96E49390048EF078
:10121300902D63E493FF90048FF0900483E0FFC369
:10122300940A501B902D63E493FF900490F0900474
:1012330083E0FF902D4393FF900491F002105690AA
:101243000483E0FF75F00A84FF902D4393FF90041D
:1012530090F0900483E0FF75F00A84AFF0EF902DD7
:101263004393FF900491F002105622AF087E009042
:1012730002C3E0FCA3E0FDC39FEC9E401A9002C3AF
:10128300E0FEA3E0FFAD087C009DFFEE9CFE900214
:10129300C3F0A3EFF080079002C3E4F0A3F0AF081C
:1012A3007E009002C5E0FCA3E0FDC39FEC9E401AC4
:1012B3009002C5E0FEA3E0FFAD087C009DFFEE9C1D
:1012C300FE9002C5F0A3EFF080079002C5E4F0A3FF
:1012D300F0AF087E009002C7E0FCA3E0FDC39FECE3
:1012E3009E401A9002C7E0FEA3E0FFAD087C009D7C
:1012F300FFEE9CFE9002C7F0A3EFF080079002C7B9
:10130300E4F0A3F0AF087E009002C9E0FCA3E0FD87
:10131300C39FEC9E401A9002C9E0FEA3E0FFAD0814
:101323007C009DFFEE9CFE9002C9F0A3EFF08007C6
:101333009002C9E4F0A3F0AF087E009002CBE0FC7A
:10134300A3E0FDC39FEC9E401A9002CBE0FEA3E016
:10135300FFAD087C009DFFEE9CFE9002CBF0A3EF57
:10136300F080079002CBE4F0A3F0AF087E00900278
:10137300CDE0FCA3E0FDC39FEC9E401A9002CDE0BC
:10138300FEA3E0FFAD087C009DFFEE9CFE9002CD26
:10139300F0A3EFF080079002CDE4F0A3F0AF087E56
:1013A300009002CFE0FCA3E0FDC39FEC9E401A90A7
:1013B30002CFE0FEA3E0FFAD087C009DFFEE9CFEA4
:1013C3009002CFF0A3EFF080079002CFE4F0A3F0F8
:1013D300AF087E009002D1E0FCA3E0FDC39FEC9E2A
:1013E30040199002D1E0FEA3E0FFAD087C009DFF11
:1013F300EE9CFE9002D1F0A3EFF0229002D1E4F034
:10140300A3F02290FFFD120BDBEBF0A3EAF0A3E9BC
:10141300F0852483852582E0FBA3E0FAA3E0F9129B
:1014230009B0FF3395E0FE74432FF582742D3EF52A
:1014330083E493FF90048AF0852483852582E0FB6F
:10144300A3E0FAA3E0F97582017583001209C9FFCD
:101453003395E0FE74432FF582742D3EF583E493B8
:10146300FF90048BF0852483852582E0FBA3E0FABB
:10147300A3E0F97582027583001209C9FF3395E071
:10148300FE74432FF582742D3EF583E493FF90049D
:101493008CF0852483852582E0FBA3E0FAA3E0F9A1
:1014A3007582037583001209C9FF3395E0FE744307
:1014B3002FF582742D3EF583E493FF90048DF08520
:1014C3002483852582E0FBA3E0FAA3E0F975820477
:1014D3007583001209C9FF3395E0FE74432FF5822B
:1014E300742D3EF583E493FF90048EF08524838569
:1014F3002582E0FBA3E0FAA3E0F97582057583007A
:101503001209C9FF3395E0FE74432FF582742D3E13
:10151300F583E493FF90048FF0852483852582E08F
:10152300FBA3E0FAA3E0F97582067583001209C9EB
:10153300FF3395E0FE74432FF582742D3EF583E46B
:1015430093FF900490F0852483852582E0FBA3E03C
:10155300FAA3E0F97582077583001209C9FF339571
:10156300E0FE74432FF582742D3EF583E493FF90E0
:101573000491F0900003120BDB22900464E4F0A3C7
:10158300F09004D37413F09004D3E0FFC3940140AC
:1015930026E074652FF582E43404F583E0FF9004BC
:1015A300D3E0FE74662EF582E43404F583EFF09005
:1015B30004D3E014F080D07F07122B4390047AEF1A
:1015C300F0900466E4F0E0FFA2B2B350047E018021
:1015D300027E00EF4EFF900466F0E0FFA2B3B3502B
:1015E300047E0280027E00EF4EFF900466F0E0FF6F
:1015F30090047AE0FEC4135407FE70047E04800254
:101603007E00EF4EFF900466F0E0FF90047AE0FE68
:10161300C4135407FEB404047E2080027E00EF4E00
:10162300FF900466F0E0FF90047AE0FEC4135407D1
:10163300FEB401047E4080027E00EF4EFF900466FC
:10164300F0E0FF90047AE0FEC4135407FEB40504EF
:101653007E0880027E00EF4EFF900466F0E0FF906C
:10166300047AE0FEC4135407FEB402047E10800221
:101673007E00EF4EFF900466F0E0FF90047AE0FEF8
:10168300C4135407FEB403047E8080027E00EF4E31
:10169300FF900466F09004D3E4F09004D3E0FFC31A
:1016A3009413501EE074662FF582E43404F583E04E
:1016B300FF900466E0FEEF6E70339004D3E004F015
:1016C30080D8900479E0FF900466E0FE6FFFE0EFBE
:1016D3005EFF900465F0900479E0FF900466E06F8C
:1016E300FF900479E0FEEF5EFF900464F022900423
:1016F300C5EFF0A3E4F053C9EF53CAEFD296D2CCAF
:10170300D295C2959004C5E0FF30E003D38001C3B6
:1017130092CCD295C2959004C5E0FF30E103D3800B
:1017230001C392CCD295C2959004C5E0FF30E20389
:10173300D38001C392CCD295C2959004C5E0FF300B
:10174300E303D38001C392CCD295C2959004C5E044
:10175300FF30E403D38001C392CCD295C2959004A9
:10176300C5E0FF30E503D38001C392CCD295C29587
:10177300D2CCD295C29543C91053CAEF9004C6E0A8
:10178300FF54FEFFF0E0FFA2CCE433FEEF4EFFF088
:10179300D295C295E0FF54FDFFF0E0FFA2CCE43305
:1017A300FE25E0FEEF4EFFF0D295C295E0FF54FB1D
:1017B300FFF0E0FFA2CCE433FE25E025E0FEEF4E90
:1017C300FFF0D295C295E0FF54F7FFF0E0FFA2CC03
:1017D300E433FE33333354F8FEEF4EFFF0D295C2B9
:1017E30095E0FF54EFFFF0E0FFA2CCE433FEC454D6
:1017F300F0FEEF4EFFF0D295C295E0FF54DFFFF00D
:10180300E0FFA2CCE433FEC43354E0FEEF4EFFF01E
:10181300D295C295E0FF54BFFFF0E0FFA2CCE433C2
:10182300FEC4333354C0FEEF4EFFF0D295C295E0B1
:10183300FF547FFFF0E0FFA2CCE433FEC433333325
:101843005480FEEF4EFFF0D295C295C296C295C268
:10185300CCE0FF229004B1EFF09004B4E4F09004E4
:10186300B204F09004B2E0FFC39405502E9004B488
:10187300E0FF75F015A4244AF8E6FF9004B2E0FEF9
:1018830075F015A4244AF8E6FEC39F5006E0FF90C6
:1018930004B4F09004B2E004F080C89004B2E4F021
:1018A3009004B2E0FFC39415507EE09004B4E0FED0
:1018B30075F015A42436F82FF8E6FF9004B3F090E2
:1018C30004B2E0FF9004B1E0FE75F015A424DFF547
:1018D30082E43403F583E5822FF582E43583F583CF
:1018E300E0FF9004B2E0FE9004B4E0FD75F015A4AF
:1018F3002436F82EF8A6079004B3E0FF9004B2E074
:10190300FE9004B1E0FD75F015A424DFF582E43404
:1019130003F583E5822EF582E43583F583EFF090BA
:1019230004B2E004F00218A39004B1E0FF75F015CF
:10193300A424F3F582E43403F583E0FF75F012A4E5
:101943002444F582E43402F583C083C082E0FF902F
:1019530004B4E0FE75F015A42436F8FEC3EF9EFF31
:10196300D082D083F09004B4E0FF75F015A4243640
:10197300F8FFE0FE75F015A4244AF8E6FE75F012B0
:10198300A42444F582E43402F583E02FF02290048A
:10199300C3EFF0A3EDF053C9EF53CAEFD296C2CC15
:1019A300D295C2959004C3E0FF30E003D38001C316
:1019B30092CCD295C2959004C3E0FF30E103D3806B
:1019C30001C392CCD295C2959004C3E0FF30E203E9
:1019D300D38001C392CCD295C2959004C3E0FF306B
:1019E300E303D38001C392CCD295C2959004C3E0A4
:1019F300FF30E403D38001C392CCD295C295900407
:101A0300C3E0FF30E503D38001C392CCD295C295E6
:101A1300D2CCD295C2959004C4E0FF30E003D380CA
:101A230001C392CCD295C2959004C4E0FF30E10388
:101A3300D38001C392CCD295C2959004C4E0FF3009
:101A4300E203D38001C392CCD295C2959004C4E043
:101A5300FF30E303D38001C392CCD295C2959004A7
:101A6300C4E0FF30E403D38001C392CCD295C29586
:101A73009004C4E0FF30E503D38001C392CCD29538
:101A8300C2959004C4E0FF30E603D38001C392CC37
:101A9300D295C2959004C4E0FF30E703D38001C31D
:101AA30092CCD295C295C295C2CCC296229004C95B
:101AB300EFF09004C9E0FF744C2FF582E43404F591
:101AC30083E0FF70ED9004C9E0FF744C2FF582E4CE
:101AD3003404F5837401F09004C9E0FF745C2FF5BE
:101AE30082E43404F583E0FF70249004C9E0FF74BA
:101AF300442FF582E43404F583E004F09004C9E054
:101B0300FF744C2FF582E43404F583E4F02290044F
:101B1300C9E0FF74542FF582E43404F583E0FF2514
:101B2300E0FF9004C9E0FE74542EF582E43404F51A
:101B330083E0FEC41313135401FE2FFF9004CAF075
:101B43009004C9E0FF745C2FF582E43404F583E06C
:101B5300FF9004CAE0FE5FFF7012E0FF25E0FFE0A4
:101B6300C41313135401FE2FFFF080D49004C9E073
:101B7300FF745C2FF582E43404F583C083C082E0F4
:101B8300FF9004CAE0FEF4FEEF5EFFD082D083F044
:101B9300900443E0FF9004CAE0FEF4FEEF5EFF9082
:101BA3000443F09004CAE0FF9004C9E0FE74542E8D
:101BB300F582E43404F583EFF09004C9E0FF744C3C
:101BC3002FF582E43404F583E4F0229004D5EFF09A
:101BD300E0FFF87401088002C333D8FCFF9004428D
:101BE300E0FEEF5EFF7003021CE99004D5E0FF25E1
:101BF300E025E0241EF582E43404F583E0FCA3E051
:101C0300FDA3E0FEA3E0FF90043EE0F8A3E0F9A308
:101C1300E0FAA3E0FBEF5BFFEE5AFEED59FDEC5853
:101C2300FC4D4E4F604290043EE0FCA3E0FDA3E078
:101C3300FEA3E0FF9004D5E0FB25E025E0241EF59C
:101C430082E43404F583120B6C900442E0FF9004A9
:101C5300D5E0FEF87401088002C333D8FCFEF4FE1D
:101C6300EF5EFF900442F0229004D5E0FF25E025CB
:101C7300E0241EF582E43404F583E0FCA3E0FDA335
:101C8300E0FEA3E0FF7400FFEE5420FEED7400FDC0
:101C9300EC7400FCEE604F9004D5E0FF25E024C314
:101CA300F582E43402F583E0FEA3E0FF4E70379043
:101CB30004D5E0FF25E025E0241EF582E43404F595
:101CC30083120B7800002000900442E0FF9004D5BB
:101CD300E0FEF87401088002C333D8FCFEF4FEEF83
:101CE3005EFF900442F0227B007A007927AF018FD8
:101CF300810B7A027920AE02AF01122CF2784A7678
:101D030000785F76017874760278897603789E7618
:101D1300049003F37405F090040804F090041D0488
:101D2300F07593007594FF5395F043960FD2A37506
:101D3300800012000E7F007EC27D017C00122669A6
:101D43007F007EC27D017C0012256E7BFF7A2D7998
:101D530001AE02AF01C006C007900496120B7800D3
:101D630000000090049A7402F0D007D0067D007C36
:101D73000012073F7BFF7A2D7917AE02AF01C00631
:101D8300C007900496120B780000000090049A7428
:101D930001F0D007D006FD7C0012073F7BFF7A2DB0
:101DA300792DAE02AF01C006C007900496120B78DE
:101DB3000000000090049A7403F0D007D0067D025F
:101DC3007C0012073F53D8FB75DC01C2BFC28C53A2
:101DD30089F0538E7F758A36758CF7D2AFD2A9C23C
:101DE300B9D28C80FE22900488E0FF120BB51E103E
:101DF300001E26011E3C021E52031E68041E7E05A1
:101E03001E94061EAA071EC00800001ECF90048A57
:101E1300E0FFF580C2A0C2A1C2A2C2A3900488E0E1
:101E230004F02290048BE0FFF580D2A0C2A1C2A2ED
:101E3300C2A3900488E004F02290048CE0FFF580B4
:101E4300C2A0D2A1C2A2C2A3900488E004F022904F
:101E5300048DE0FFF580D2A0D2A1C2A2C2A3900458
:101E630088E004F02290048EE0FFF580C2A0C2A1B6
:101E7300D2A2C2A3900488E004F02290048FE0FF72
:101E8300F580D2A0C2A1D2A2C2A3900488E004F03C
:101E930022900490E0FFF580C2A0D2A1D2A2C2A3F7
:101EA300900488E004F022900491E0FFF580D2A032
:101EB300D2A1D2A2C2A3900488E004F022900489A4
:101EC300E0FFF580D2A3900488E4F022900488E434
:101ED300F0224404B5F2E0062C4104D20041047A16
:101EE300FF4104650041046400410354004103DAE7
:101EF3000048048A0000000000000000410489003B
:101F0300410488004104430048044C0000000000E1
:101F130000000044043E0000000041044200602031
:101F2300041E00000000000000000000000000008C
:101F3300000000000000000000000000000000009E
:101F4300000041023208012600410228004102310B
:101F5300FF5002C30000000000000000000000006A
:101F630000000000041B000000000108004104867B
:101F73000041047F00410481004104800041048248
:101F83000041047D0141047E0141047B0041047C46
:101F930000410484004104850041048300007B0068
:101FA3007A007D107C107F03120003900232E0FF61
:101FB30025E025E0241EF582E43404F583E0FCA348
:101FC300E0FDA3E0FEA3E0FF5410FFEE7400FEED7E
:101FD3007400FDEC7400FCEF600690048974FFF05C
:101FE3007B007A007D057C107F0312000390023290
:101FF300E0FF25E025E0241EF582E43404F583E0C8
:10200300FCA3E0FDA3E0FEA3E0FF5401FFEE740098
:10201300FEED7400FDEC7400FCEF600B900486741D
:1020230001F0900489E4F0900232E0FF25E025E01E
:10203300241EF582E43404F583E0FCA3E0FDA3E071
:10204300FEA3E0FF5404FFEE7400FEED7400FDEC0C
:102053007400FCEF7003021FA19004867402F090D9
:102063000489E4F0021FA1229004D4EFF09004D479
:10207300E0FF744C2FF582E43404F583E0FF70ED48
:102083009004D4E0FF744C2FF582E43404F5837498
:1020930001F09004D4E0FF74442FF582E43404F596
:1020A30083E0FF60269004D4E0FF74442FF582E4BC
:1020B3003404F583E014F09004D4E0FF744C2FF55E
:1020C30082E43404F583E4F07F01229004D4E0FF3A
:1020D300745C2FF582E43404F583C083C082E0FF8F
:1020E300900232E0FEF87401088002C333D8FCFE8C
:1020F300EF4EFFD082D083F0900443E0FF90023292
:10210300E0FEF87401088002C333D8FCFEEF4EFFF3
:10211300900443F09004D4E0FF744C2FF582E43430
:1021230004F583E4F0FF2290FFFE120BDBEEF0A335
:10213300EFF0852483852582E0FEA3E0FFF8740198
:10214300088002C333D8FCFFE4FCFDFEC004C005D5
:10215300C006C007AF1EAE1DAD1CAC1B7805120B2D
:1021630024A804A905AA06AB07D007D006D005D03A
:1021730004EB5FFFEA5EFEE95DFDE85CFC4D4E4F5C
:102183006025900489E0FF852483852582E0FCA3F4
:10219300E0FDFEF87401088002C333D8FCFEEF4E65
:1021A300FF900489F0808B900489E0FF8524838568
:1021B3002582E0FCA3E0FDFEF87401088002C3332E
:1021C300D8FCFEF4FEEF5EFF900489F00221359007
:1021D3000002120BDB229004A7EBF0A3EAF0A3E9C1
:1021E300F0A3EDF0D2B753AFFEE0FF603CA3E4F001
:1021F3009004AAE0FFA3E0FEC39F5075539AFD909D
:1022030004A7E0FBA3E0FAA3E0F99004ABE0FFF539
:10221300827583001209C9FFF59BE59A30E1FB90B3
:1022230004ABE004F080C980489004ABE4F0539A17
:10223300FD9004A7E0FBA3E0FAA3E0F99004ABE070
:10224300FFF5827583001209C9FF60259004A7E09A
:10225300A3E0A3E09004ABE0FFF5827583001209CD
:10226300C9FFF59BE59A30E1FB9004ABE004F080F5
:10227300BDC2B7539AFE539AFD43AF01229004BBEC
:102283007409F0A3E4F0900232E0FFC39408400223
:10229300E4F0900232E0FF9004BAF09004B9E0FF5A
:1022A30004FF5407FFF0900232E0FEEF6E604A90A5
:1022B30004B9E0FF122897EF60E19004B9E0FF74DE
:1022C300202FF582E43402F583E0FF9004BBE0FEA7
:1022D300EFC39E50C69004B9E0FF74202FF582E44B
:1022E3003402F583E0FF9004BBF09004B9E0FFA350
:1022F300F09004BC7401F080A29004BCE0FF640180
:10230300601C900232E0FF122897EF600B900232BC
:10231300E0FF9004BAF080069004BA7409F09004C8
:10232300BAE0FF2278FFE4F6D8FD9000007F007E3C
:1023330007E4F0A3DFFCDEFA752400752500758140
:102343009E022382021CEAE493A3F8E493A34003CE
:10235300F68001F208DFF48029E493A3F8540724FC
:102363000CC8C333C4540F4420C8834004F45680BC
:102373000146F6DFE4800B01020408102040809040
:102383001ED5E47E019360BCA3FF543F30E509549E
:102393001FFEE493A360010ECF54C025E060A84064
:1023A300B8E493A3FAE493A3F8E493A3C8C582C85B
:1023B300CAC583CAF0A3C8C582C8CAC583CADFE930
:1023C300DEE780BEC0E0C0F0C083C082C0D075D05D
:1023D30000C000C001C002C003C004C005C006C0E5
:1023E3000753AFFE9002D3E4F0539AFE9002D3E07A
:1023F300FF04F074D42FF582E43402F583E59BF0F7
:10240300900355120B78000001F4E59A20E0DA906E
:10241300035574FF120B397B007A0079007800C3EF
:10242300120B1370E5800480E180BE539AFE539A29
:10243300FD43AF019003547401F0D007D006D005DB
:10244300D004D003D002D001D000D0D0D082D0832A
:10245300D0F0D0E03290FFFE120BDBEEF0A3EFF0F2
:102463007B007A007D017C107F031200039002320F
:10247300E0FF25E025E0241EF582E43404F583E043
:10248300FCA3E0FDA3E0FEA3E0FF5401FFEE740014
:10249300FEED7400FDEC7400FCEF602B122A3E90FD
:1024A30002D4120B6CC28C7B017A0279D47D0412A4
:1024B30021D9D28C9002D4E0FCA3E0FDA3E0FEA3DB
:1024C300E0FF12044F80999002D4E0FCA3E0FDA347
:1024D300E0FEA3E0FF12044F8086900002120BDBA4
:1024E30022C0E0C0F0C083C082C0D075D000C0005D
:1024F300C001C002C003C004C005C006C007C2AC0F
:10250300900359E4F0C298900359E0FF04F0745A21
:102513002FF582E43403F583E599F09003DB120B86
:1025230078000001F42098DD9003DB74FF120B396F
:102533007B007A0079007800C3120B1370E78004E4
:1025430080E380C1C299C298D2AC9003DA7401F0DF
:10255300D007D006D005D004D003D002D001D000DC
:10256300D0D0D082D083D0F0D0E03290049B120B35
:102573006C53B33F43B4C053B17F43B28043B340C2
:1025830053B4BF90049BE0F8A3E0F9A3E0FAA3E0FF
:10259300FB7F307EFF7D667C00120A81C3E49FFFD0
:1025A300E49EFE90049FF0A3EFF0538EEF538EF75B
:1025B300438E0453AFFB90049FE0FEA3E0FFEEFFC6
:1025C3007E00F5D690049FE0FEA3E0FFF5D7438E8F
:1025D3001043B501539A7F439A10E5BA54FEFF4462
:1025E30001F5BAC2B743AF01227F001216F190047E
:1025F300D1EFF0E0FFE4FCFDFE9004B5120B6C7F1D
:10260300011216F19004D1EFF09004B5E0F8A3E0C5
:10261300F9A3E0FAA3E0FB9004D1E0FFE4FCFDFEA4
:10262300EB2FFFEA3EFEE93DFDE83CFC9004B512CA
:102633000B6C7F021216F19004D1EFF09004B5E019
:10264300F8A3E0F9A3E0FAA3E0FB9004D1E0FFE4F0
:10265300FCFDFEEB2FFFEA3EFEE93DFDE83CFC906E
:1026630004B5120B6C229004A1120B6C53B1FD4301
:10267300B20243B10153B2FE9004A1E0F8A3E0F922
:10268300A3E0FAA3E0FB7F307EFF7D667C00120AA5
:1026930081C3E49FFFE49EFE9004A5F0A3EFF04303
:1026A3008E01538EEF538EF7438E0453AFFB90048A
:1026B300A5E0FEA3E0FFEEFF7E00F5D69004A5E0C3
:1026C300FEA3E0FFF5D7438E10D2BCE598543FFF3D
:1026D3004440F598D29C53A23FD2AC2290FFFE1205
:1026E3000BDBEEF0A3EFF07B007A007D017C007F33
:1026F300031200037BFF7A2D79C3121406C28C7B6D
:10270300FF7A2D79CC7D0012282ED28C7B007A00A3
:102713007D407C007F031200037BFF7A2D79D41266
:102723001406C28C7BFF7A2D79DD7D0012282ED210
:102733008C7B007A007D007C087F031200037B0101
:102743007A03795A121406809E900002120BDB2240
:102753000508C5267065C52685830985820AF50B9C
:1027630085F00C85D00D880E890F8A108B118C1281
:102773008D138E148F15852416852517D018D0191F
:1027830085811A75812775240075254712295F8570
:102793001A81C019C018850983850A82E50B850C47
:1027A300F0850DD0A80EA90FAA10AB11AC12AD1372
:1027B300AE14AF1585162485172532C5263290022F
:1027C30032E0FFC394085003122AC51222809002FC
:1027D30032EFF0E0FF6409602AE074292FF582E408
:1027E3003402F583E0FF900231F0A3E0FF122C2FB7
:1027F300EFB4FF0B900232E0FF122BBC12185712FA
:102803002B04227BFF7A007907AE02AF01E4FCFDC3
:10281300EF7400FFEE7400FE7810120B248F18AFD4
:1028230001EFF5199002317401F0228B1F8A208980
:10283300218D22C2ACE5226028752300E523C395D0
:1028430022504AC299AB1FAA20A921AF238F8275B8
:1028530083001209C9FFF5993099FD052380DD80B6
:102863002C752300C299AB1FAA20A921AF238F8205
:102873007583001209C9FF6014AF238F827583002B
:102883001209C9FFF5993099FD052380D7C298C273
:1028930099D2AC229004D6EFF0E0FFF874010880DF
:1028A30002C333D8FCFF900228E0FEEF5EFFD3940F
:1028B300004003D38001C340037F00229004D6E08D
:1028C300FFF87401088002C333D8FCFF900443E08F
:1028D300FEEF5EFF60037F00229004D6E0FFF874F2
:1028E30001088002C333D8FCFF900442E0FEEF5E90
:1028F300FF60037F00227F012285830985820AF519
:102903000B85F00C85D00D880E890F8A108B118CE6
:10291300128D138E148F15852416852517D018D084
:102923001985811A7581277524007525471200269C
:10293300851A81C019C018850983850A82E50B852C
:102943000CF0850DD0A80EA90FAA10AB11AC12ADD7
:1029530013AE14AF1585162485172532AF08E4FC92
:10296300FDFEE51E2FF51EE51D3EF51DE51C3DF59F
:102973001CE51B3CF51B900231E0FFC395084007A3
:10298300E09508FFF08005900231E4F012126E75B5
:102993000800121DE9122BF6E5D820E20D90023152
:1029A300E0FFD3940050031227C1227B007A007DFD
:1029B300007C007F041200037B007A007D007C0012
:1029C3007F06120003900489E0FF4440FFF07B0080
:1029D3007A007DF47C017F021200037B007A007D84
:1029E300007C007F05120003900489E0FF54BFFFC1
:1029F300F080C522900354E0FF601CE4F090043E95
:102A0300E0FCA3E0FDA3E0FEA3E0FFEE4410FEED37
:102A1300EC90043E120B6C9003DAE0FF601CE4F0D0
:102A230090043EE0FCA3E0FDA3E0FEA3E0FFEE4440
:102A330008FEEDEC90043E120B6C227F6D7E4E7D02
:102A4300C67C419004B5E0F8A3E0F9A3E0FAA3E063
:102A5300FB1209F6EF2439FFEE3430FEED3400FDAE
:102A6300EC3400FCEFEEEDEC547FFC9004B5120B5C
:102A73006C9004B5E0FCA3E0FDA3E0FEA3E0FF221D
:102A83009004C7EFF0A3EDF09004C7E0FF745C2F50
:102A9300F582E43404F583E4F09004C7E0FF745452
:102AA3002FF582E43404F5837401F09004C8E0FF49
:102AB3009004C7E0FE74442EF582E43404F583EFFA
:102AC300F0229004D7E4F09004D7E0FFC3941250AF
:102AD3002FE074092FF8E6FFE0FE900232E0FD7567
:102AE300F012A42433F582E43402F583E5822EF553
:102AF30082E43583F583EFF09004D7E004F080C7D8
:102B0300229004D8E4F09004D8E0FFC39412502F2D
:102B1300E0900232E0FE75F012A42433F582E4342F
:102B230002F583E5822FF582E43583F583E0FF9098
:102B330004D8E0FE74092EF8A607E004F080C7224B
:102B43009004C1EFF075BD00E5BC54E0FF4408FFFD
:102B5300E0FEEF4EF5BC00000000A3E4F09004C2D9
:102B6300E0FFC394FA5013E5BC30E40653BCEFAF67
:102B7300BD229004C2E004F080E37F00227B007A50
:102B8300007DF47C017F021200037B007A007D004C
:102B93007C007F05120003900489E0FF4480FFF06E
:102BA3007B007A007D007C007F061200039004897D
:102BB300E0FF547FFFF080C5229004BFEFF0A3E451
:102BC300F09004C0E0FFC394035025E075F015A412
:102BD30024F3F582E43403F583E0FF9004BFE0FEC1
:102BE300EFB50604A3E0FF229004C0E004F080D117
:102BF3007FFF2290043E120B7800000000120E3279
:102C03001229F77F00121BCE7F01121BCE7F021207
:102C13001BCE7F03121BCE7F04121BCE7F05121B1C
:102C2300CE7F06121BCE7F07121BCE229004BDEF70
:102C3300F0A3E4F09004BEE0FFC39405501FE075D9
:102C4300F015A4244AF8E6FF9004BDE0FEEFB506B4
:102C530004A3E0FF229004BEE004F080D77FFF22AC
:102C630090FFFE120BDBEEF0A3EFF08524838525A6
:102C730082E0FCA3E0FD7B007A007F021200039058
:102C83000489E0FF640FFFF080E1900002120BDB88
:102C93002290FFFE120BDBEEF0A3EFF08524838579
:102CA3002582E0FCA3E0FD7B007A007F0212000393
:102CB300900489E0FFF4FFF080E2900002120BDB46
:102CC300229004D2E0FF7017759D9C43BC80E5BC45
:102CD300549FFF4460F5BC5397DFC2AD7401F022EB
:102CE30010AF05AE24AF2522AE24AF25D2AF2210FC
:102CF300AF058E248F25228E248F25D2AF229004F8
:102D0300CBEEF0A3EFF07F007E007D007C00120489
:102D13004F80F3229004CDEEF0A3EFF07FC77E8ABD
:102D23007DA97C0012044F80F3229004CFEEF0A320
:102D3300EFF07F8E7E157D537C0112044F80F322CA
:102D43003F065B4F666D7D077F6F777C395E7971D8
:102D53000000000000000000000000000000000070
:102D63000080808080808080008080808080808060
:102D73003F065B4F666D7D077F6F8080808080801C
:102D830080777C395E79713D760F0E753837545CE8
:102D93007367316D783E1C7E646E598080808080BD
:102DA30080777C395E79713D760F0E753837545CC8
:102DB3007367316D783E1C7E646E5980808080809D
:102DC30048454C4C4F2020200068656C6C6F2000F8
:102DD30000574F524C4420202000776F726C640DD3
:032DE3000A0000E3
:00000001FF
