:020000040800F2
:10000000C005002001010008EB1C0008851A00084B
:10001000E91C0008B10200081922000800000000D5
:10002000000000000000000000000000EF1C0008BD
:100030000303000800000000ED1C00083D1D00083F
:100040001B0100081B0100081B0100081B01000820
:100050001B0100081B0100081B0100081B01000810
:100060001B0100081B0100081B010008B502000865
:100070001B0100081B010008C1020008CD02000896
:100080001B0100081B0100081B0100081B010008E0
:100090001B0100081B0100081B0100081B010008D0
:1000A0001B0100081B0100081B0100081B010008C0
:1000B0001B0100081B0100081B0100081B010008B0
:1000C0001B0100081B0100081B0100081B010008A0
:1000D0001B010008012200080D2200081B01000876
:1000E0001B0100081B0100081B010008DFF80CD0F1
:1000F00000F02AF8004800475D220008C0050020F3
:100100000648804706480047FEE7FEE7FEE7FEE7B1
:10011000FEE7FEE7FEE7FEE7FEE7FEE7C71D000895
:10012000ED00000840EA01039B0703D009E008C97D
:10013000121F08C0042AFAD203E011F8013B00F8AC
:10014000013B521EF9D27047064C074D06E0E068AD
:1001500040F0010394E8070098471034AC42F6D30E
:10016000FFF7C8FF382300085823000870B504467D
:1001700000688168C943C90717D1816821F001016E
:10018000816000F0C3FD05460AE000BF00F0BEFD3F
:10019000401B022804D920688068C043C00706D0ED
:1001A00020688068C043C007F0D0002070BDA06AFE
:1001B00040F01000A062E06A40F00100E06201201F
:1001C00070BD10B50146406A826A12F0500F05D02A
:1001D000006A026BBDE8104008461047816A41F48E
:1001E0000071816201688968C1F3424107290CD11D
:1001F000017B51B9816A21F480718162816AC904ED
:1002000003D4816A41F00101816200F04BF910BD15
:1002100010B5406A816A41F040018162C16A41F0D3
:100220000401C16200F040F910BD10B5406A00F051
:100230003AF910BDF8B500260446009600688168BA
:10024000C943C9072DD0816841F00101816016487A
:1002500016490068B0FBF1F000E0401E0090002855
:10026000FBD100F053FD054616E000BF00F04EFD47
:10027000401B022810D920688068C043C0070BD0FB
:10028000A06A40F01000A062E06A40F00100E06265
:1002900084F824600120F8BD20688068C043C0074E
:1002A000E4D10020F8BD00003000002040420F00E3
:1002B000FEE70000014800F023BB000064000020BE
:1002C000014800F01DBB000038010020014800F08B
:1002D00017BB00007C01002030B590F8405001248D
:1002E000AC40C56B6C60046863604368102B0368A6
:1002F00003D099600068C26030BD9A600068C16038
:1003000030BD704710B501224021064800F0F8FCCE
:10031000BDE810404FF47A7301220349034801F00D
:1003200026BB00000018014000000020F000002063
:100330000348034900781A3100F00F00C871704774
:1003400000000020054810B5C179072001F0D0FC5D
:10035000BDE81040024800F07DB900001A000020FE
:10036000340000200F480F4AB0F90210642091FBBE
:10037000F0F3123A0B2B02D113785B1E137091FB32
:10038000F0F31C2B02D113785B1C137091FBF0F27D
:10039000052A05D191FBF0F2162A01D091FBF0F06D
:1003A0007047000012000020F8B50024009490F877
:1003B00024202546012A12D0012280F824204A68F0
:1003C0001F23072A0DD20668776B521E02EB8202AA
:1003D00093409F430B6893401F43776319E00220CB
:1003E000F8BD06680D2A0AD2376BD21F02EB8202D3
:1003F00093409F430B6893401F43376309E0F76ABC
:100400000D3A02EB820293409F430B6893401F43D7
:10041000F7620A68072306680A2A0AD3F7680A3AC5
:1004200002EB420293409F438B6893401F43F76067
:1004300008E0376902EB420293409F438B68934088
:100440001F4337610A68102A01D0112A20D1124BAC
:1004500002689A4217D193681B0219D4936843F437
:10046000000393600968102912D10C490C4A0968ED
:10047000B1FBF2F101EB8101490000E0491E00915E
:100480000029FBD104E0816A41F02001816201244E
:1004900080F824502046F8BD0024014030000020A0
:1004A00040420F0070477047704700002DE9F0414F
:1004B0004FF0000704003D467ED0A06A002628B910
:1004C000E66284F82460204600F07EF82046FFF7BC
:1004D0004DFEA16AC90600D420B1A06A40F0100008
:1004E000A06269E0A16A21F4885141F00201A16291
:1004F0006268E169237B0A4347EA43010A43A16832
:100500004FF48077B94209D0012907D05FF000018C
:1005100094F814C0BCF1010F02D00AE03946F7E7A5
:10052000F3B1A36A43F02003A362E36A43F001033B
:10053000E3622368D3F804C02CF4694C4CEA010C44
:10054000C3F804C021688B68DFF870C003EA0C03AD
:1005500013438B60A168B9420BD0012909D00CE08C
:10056000DFF85CC0A3690CEB43330B4343F4006139
:10057000DFE7218A0D05A5F580152168CB6A23F4F4
:1005800070032B43CB62216889680E4B194091425E
:1005900008D1E662A16A21F0020141F00101A162E5
:1005A000BDE8F081A06A20F0020040F01000A062D7
:1005B000E06A40F00100E0620120F1E7FDF7E1FFB1
:1005C00000E0FFFFFE0E1FFF30B50546006818492A
:1005D00085B0884229D11748816941F40071816151
:1005E0008069694600F40070049031200090032077
:1005F0000190114800F094FA114C104880212060BD
:1006000000206060C4E90201490021618900616144
:100610002021C4E90610204600F01CFA18B18721F9
:1006200008A001F0FAFD2C62656205B030BD000043
:100630000024014000100240001001400800024068
:10064000640000202E2E2F5372632F6164632E638B
:100650000000000070B5044690F8240001280DD079
:10066000012084F824002046FFF7E4FD02004FF04B
:10067000000005D084F82400104670BD022070BD33
:10068000A16A40F20123994341F48071A1621F4D98
:1006900023681F49AB4218D10E6816F4702F14D08E
:1006A000A66A46F48016A6620E68760505D5A66A87
:1006B00026F4005646F48056A662A66AF6040AD5C9
:1006C000E66A26F00606E66206E0A66A26F48016CA
:1006D000A6625E68E9E7E06284F824006FF0020039
:1006E000186020688368C3F34243072B05D1A842F2
:1006F00008D1096811F4702F04D0816841F4801189
:100700008160B9E7816841F4A001F9E70028014060
:10071000042401402DE9F047894604463B4900681E
:100720003B4F0E1D9046884201D0B84207D1306839
:1007300010F4702F03D001252846BDE8F08794F807
:10074000240001280CD0012084F824002046FFF763
:1007500071FD05004FF0000004D084F82400EBE7A1
:100760000220EAE7A16A40F60162914341F48071F8
:10077000A1622168B94218D1326812F4702F14D0E6
:10078000A16A41F48011A1623168490505D5A16AC9
:1007900021F4005141F48051A162A16AC9040AD533
:1007A000E16A21F00601E16206E0A26A22F4801209
:1007B000A2624968E9E7E06284F82400216A1548EA
:1007C0008862216A1448C862216A14480863216853
:1007D0006FF0020008602068816841F480718160D8
:1007E000216843464A464C31206A00F061F920688E
:1007F0008168C1F342410729816803D041F4801127
:10080000816099E741F4A001FAE70000002401406B
:1008100000280140C30100082B0200081102000853
:1008200010B590F821100022022905D0042181631F
:1008300080F82020012010BD01680B6823F00E0312
:100840000B6001680B6823F001030B6090F84030E7
:10085000C46B012101FA03F3636080F8211080F872
:100860002020104610BD000010B590F82110002483
:10087000022903D00421816301243DE001680A6854
:1008800022F00E020A6001680A6822F001020A6082
:100890001A4A0168914201D1012121E0174A14321C
:1008A000914201D110211BE0144A2832914201D11A
:1008B000891515E0114A3C32914201D189140FE0AB
:1008C0000E4A5032914202D14FF4803108E00B4A77
:1008D0006432914202D14FF4801101E04FF08071F7
:1008E000064A083A5160012180F82110002180F861
:1008F0002010416B01B18847204610BD080002401E
:100900002DE9F05FC16B0C6801680B68D0F840C03E
:10091000042202FA0CF2494DDFF824A1494E4A4F55
:10092000DFF828B1DFF828E122422CD05A072AD577
:100930000A68920603D40A6822F004020A60016879
:10094000A94201D1042219E0514501D1402215E00C
:10095000B14202D14FF4806210E0B94202D14FF4AB
:1009600080420BE0594502D14FF4802206E07145E8
:1009700002D14FF4800201E04FF080622F49083924
:100980004A60C16A3BE04FF0020808FA0CF818EA26
:10099000040F4FF000094FF0010235D05FEA837871
:1009A00032D50B689B0605D40B6823F00A030B6055
:1009B00080F821200168A94201D1022219E05145A5
:1009C00001D1202215E0B14202D14FF4007210E0B3
:1009D000B94202D14FF400520BE0594502D14FF415
:1009E000003206E0714502D14FF4001201E04FF0F1
:1009F0000072124908394A6080F82090816A002903
:100A00001AD0BDE8F05F0847082505FA0CF5254225
:100A100012D01B0710D50B6823F00E030B6090F863
:100A20004010C36B02FA01F15960826380F8212003
:100A300080F82090016BE2E7BDE8F09F08000240DB
:100A40001C000240300002404400024058000240B6
:100A50006C00024030B528B308C813491422194469
:100A6000B1FBF2F18900C163104981630221417732
:100A70001A6843F6F0718A43D0E900142143D0E9A3
:100A800002452C432143046921434469214384697D
:100A9000214311431960002141630122427701770C
:100AA000084630BD012030BDF8FFFDBF0000024008
:100AB00070B5044690F82000002501280CD00120D4
:100AC00084F8200094F821600020012E06D084F8DC
:100AD00020000225284670BD022070BD022684F841
:100AE0002160A0632068066826F0010606602046A3
:100AF000FFF7F2FBE06A00282068016802D041F0AD
:100B00000E0106E021F0040101602068016841F057
:100B10000A0101602068016841F001010160D9E724
:100B20002DE9F84FDFF8B8910024A9F1040B234612
:100B30000F2709F1040AABF1040EC9E00125A54015
:100B40002A40AA427DD1674ED1F804C0ACEB06081A
:100B5000B44532D014DCBCF1030F3AD009DCBCF14F
:100B6000000F2AD0BCF1010F1CD0BCF1020F31D113
:100B70001DE0BCF1110F17D0BCF1120F2AD119E002
:100B8000B8F5881F19D006DCB8F5803F15D0B8F548
:100B9000801F1FD111E0B8F5001F0ED0B8F5041F5B
:100BA00018D10AE0CB6815E0CB681B1D12E0CB68BA
:100BB00008330FE0CB680C330CE08B682BB1012BB2
:100BC0004FF0080303D0456104E0042302E005610F
:100BD00000E00023FF2A01D8064601E000F10406E8
:100BE0004FEA840501D9A5F12005D6F8008007FA5F
:100BF00005FC28EA0C0803FA05F548EA0508C6F8DA
:100C000000804D68ED0062D5374DAE6946F00106B3
:100C1000AE61AD6924F0030605F001050095334D82
:100C200006EB050CDCF80850A607360F07FA06F8A5
:100C300025EA0805DFF8B880404503D14FF00008E9
:100C400017E044E0DFF8AC80404502D14FF00108E6
:100C50000FE0DFF8A480404502D14FF0020808E021
:100C6000DFF89880404502D14FF0030801E04FF0D3
:100C7000040808FA06F848EA0508CCF808804D6828
:100C8000D9F80060ED024D4601D5164300E09643C9
:100C90002E604D68DAF80060AD02554601D5164366
:100CA00000E096432E604D68DBF80060AD035D46C2
:100CB00001D5164300E096432E604D68DEF80060D3
:100CC000ED03754601D5164300E096432E60641C83
:100CD0000D682A46E5407FF431AFBDE8F88F00008B
:100CE0000804014000001110001002400000014003
:100CF00000080140000C01400010014000140140B8
:100D00000AB1016170470904FBE7000001488068EF
:100D100070470000240000200248816802781144D6
:100D20008160704724000020074810B5016841F039
:100D300010010160032000F09FF8002000F006F889
:100D400000F024F8002010BD0020024070B50D4DC9
:100D500004464FF47A712878B1FBF0F00A4909682B
:100D6000B1FBF0F000F0CAFB48B9102C07D200220A
:100D70002146501E00F060F800206C6070BD01201C
:100D800070BD00002400002030000020214808B57C
:100D9000816941F001018161816901F001010091E6
:100DA000C16941F08051C161C06900F0805000907C
:100DB000032000F061F8002211466FF00B0000F0F4
:100DC0003BF8002211466FF00A0000F035F80022CF
:100DD00011466FF0090000F02FF800221146501F55
:100DE00000F02AF800221146101F00F025F800221A
:100DF0001146901E00F020F800221146501E00F00F
:100E00001BF80548416821F0E06141F00071416044
:100E100008BD00000010024000000140002809DB6E
:100E200000F01F02012191404009800000F1E02004
:100E3000C0F8001170470000F0B40E4B1B680C4660
:100E4000C3F30223C3F10705042D00D90425191D9E
:100E5000072901D2002300E0DB1E012606FA05F176
:100E6000491E214099409E40761E16403143F0BCF9
:100E700001F0D4B90CED00E0064900F00702086863
:100E80004FF6FF03184040EA0220034A104308606F
:100E9000704700000CED00E00000FA052DE9F84372
:100EA00005460078354CC00754D0E0690026C000E4
:100EB00008D4E06940F08050E061E069012600F06C
:100EC000805000902E480168C90512D40168804600
:100ED00041F480710160FFF719FF074605E000BF8C
:100EE000FFF714FFC01B642823D8D8F80000C00502
:100EF000F6D5206A10F4407021D0A98801F4407121
:100F000081421CD0206A1F49012220F440700A60EF
:100F100000220A602062C00711D0FFF7F7FE0746E3
:100F200041F2883808E000BFFFF7F0FEC11B4145E1
:100F300002D90320BDE8F883206A8007F4D5206A2F
:100F4000696820F44070084320621EB1E06920F017
:100F50008050E0612878800705D56068A96820F492
:100F60004040084360602878C00605D56068E9689D
:100F700020F48000084360600020DBE7001002409E
:100F800000700040400442422DE9F0470F46050042
:100F900061D0434E306800F00700B84209D2306893
:100FA00020F0070038433060306800F00700B84296
:100FB00051D128683B4C810712D5400703D56068A2
:100FC00040F4E06060602878000703D5606840F472
:100FD000605060606068A96820F0F00008436060BD
:100FE0002878C00728D06868012810D02168022816
:100FF00010D0890700292EDA616821F0030101432E
:101000006160FFF783FE804641F288390DE0216878
:101010008903EFE78901EDE7FFF778FEA0EB080110
:10102000494502D90320BDE8F0876068696800F08F
:101030000C00B0EB810FEFD1306800F00700B84230
:101040000BD9306820F0070038433060306800F07A
:101050000700B84201D00120E5E72878400705D510
:101060006068E96820F4E060084360602878000761
:1010700006D56068296920F4605040EAC1006060CC
:1010800000F03EF86168084AC1F30311515CC840A2
:101090000649086006480068FFF758FE0020C2E7CE
:1010A00000200240001002401E23000830000020F3
:1010B0002800002001480068704700003000002030
:1010C0000448054900684968044AC1F30221515C9B
:1010D000C840704730000020001002402E23000856
:1010E0000448054900684968044AC1F3C221515CBB
:1010F000C840704730000020001002402E23000836
:101100000F4A516801F00C00042803D0082803D0CE
:101110000C4870470C4870470C48C1F38343C9031F
:10112000C05C0AD55168094AC1F34041921E515C26
:10113000054A5043B0FBF1F07047054948437047FA
:101140000010024000127A00001BB7000E230008B6
:1011500000093D002DE9F84F040070D02078C04D03
:10116000C00749D06868C0F38100012807D06868CB
:10117000C0F38100022809D16868C00306D5286839
:10118000800339D560680028E7D035E06068B0F5A5
:10119000803F0BD010B1B0F5A02F11D0286820F4FB
:1011A00080302860286820F4802002E0286840F41D
:1011B00080302860606890B1FFF7A8FD06460AE01D
:1011C000286840F480202860F0E700BFFFF79EFD0C
:1011D000801B642873D828688003F7D50CE0FFF7DC
:1011E00095FD064605E000BFFFF790FD801B6428D3
:1011F000F0D828688003F7D420789A4E80074FF003
:1012000001094FF0000839D5686810F00C0F07D0BD
:101210006868C0F38100022809D16868C00306D459
:101220002868800714D52069012808D110E02069BA
:10123000B0B1C6F80090FFF769FD074605E00AE186
:10124000FFF764FDC01B0228C4D828688007F7D5C3
:101250002868616920F0F80040EAC10028600DE0CC
:10126000C6F80080FFF752FD074604E0FFF74EFD89
:10127000C01B022823D828688007F7D420780007ED
:101280002CD57948A169D9B1C0F80090FFF73EFD8F
:10129000074604E0FFF73AFDC01B02280FD8686A32
:1012A0008007F7D571484FF4FA510068B0FBF1F0B0
:1012B000009000BF0098411E0091FAD20EE080E03D
:1012C000C0F80080FFF722FD074604E0FFF71EFD8F
:1012D000C01B022875D8686A8007F7D420784007B9
:1012E00060D5E8690027C00008D4E86940F0805064
:1012F000E861E869012700F0805000905C480168CF
:10130000C90513D40168834641F480710160FFF779
:10131000FDFC824606E000BFFFF7F8FCA0EB0A00E8
:1013200064284ED8DBF80000C005F5D5E068012838
:101330000AD008B1052813D0286A20F001002862DD
:10134000286A20F0040002E0286A40F001002862C8
:10135000E06841F2883B98B1FFF7D8FC82460BE089
:10136000286A40F004002862EEE700BFFFF7CEFCD9
:10137000A0EB0A0159455AD8286A8007F6D50CE037
:10138000FFF7C4FC824605E0FFF7C0FCA0EB0A01B2
:1013900059454CD8286A8007F6D41FB1E86920F077
:1013A0008050E861E06988B36968C1F3810102296E
:1013B00044D00228C6F8608004D0FFF7A7FC04469A
:1013C00038E034E0FFF7A2FC074604E0FFF79EFC9C
:1013D000C01B02282BD828688001F7D4206AB0F5FA
:1013E000803F05D16868A16820F400300843686038
:1013F000D4E908010843696821F47411084368605E
:10140000C6F86090FFF782FC044606E025E000BFC6
:10141000FFF77CFC001B022809D828688001F7D55B
:101420001BE000BFFFF772FC001B022802D903205B
:10143000BDE8F88F28688001F4D40EE00128F7D0C9
:101440006868226A00F48031914204D1616A00F434
:101450007010884201D00120EAE70020E8E7000090
:10146000001002400000424280044242300000204E
:10147000007000404FF0E0210428086903D020F0FC
:1014800004000861704740F00400FAE71A4801219F
:101490004170027A521CD2B202720A2A2AD3002266
:1014A00002728170437A5B1CDBB24372142B21D32E
:1014B0004272C170837A5B1CDBB28372192B19D321
:1014C00082720171C37A5B1CDBB2C372022B11D32F
:1014D000C2724171037B5B1CDBB203733C2B09D3EB
:1014E00002738171437B5B1CDBB243733C2B01D3E2
:1014F0004273C171704700000000002010B5401E0B
:10150000B0F1807F01D3012010BD4FF0E024606175
:101510000F21601700F082FE0020A06107202061EB
:10152000002010BD10B5FFF7B1FF10BD7047704728
:10153000F8B5016804460868CA684B6910F00F0FD7
:101540004FF0000559D003F0010602F490773743BD
:1015500065D0C10705D0D10503D5616C41F001010B
:101560006164410705D5D90703D0616C41F00201E0
:101570006164810705D5D90703D0616C41F004018E
:101580006164010707D502F02001314303D0616C8B
:1015900041F008016164616C00293AD0800604D5ED
:1015A000900602D5204600F0E9FC20684069616C95
:1015B000C0F38010090700D460B3204600F0A9FCF6
:1015C00020684069400621D52068143050E8001F8B
:1015D00021F0400140E80012002AF5D1E06BA8B1EB
:1015E0006D494163E06BFFF73FF9002811D0E06BD4
:1015F000416B01B0BDE8F040084783060FD5930664
:101600000DD52046BDE8F84000F0B8BC2046FFF7F5
:101610008EFFF8BD2046FFF78AFF6564F8BD266B94
:101620002023012E7CD1C6067AD5D60678D5086847
:101630004868009048694FF00206400640D5E16BCB
:10164000086840680004000CE8D0A28D8242E5D909
:10165000E085886920282DD020680C3050E8001FD4
:1016600021F4807140E80012002AF5D1206814307E
:1016700050E8001F21F0010140E80012002AF5D1D6
:101680002068143050E8001F21F0400140E80012AB
:10169000002AF5D184F84230256320680C3050E8E8
:1016A000001F21F0100140E80012002AF5D1E06B84
:1016B000FFF7B6F86663A08DE18D401A81B22AE08B
:1016C000A08DE18D401A81B2E08D0028A6D00029BE
:1016D000A4D022680C3252E8000F20F4907042E847
:1016E0000007002FF5D12068143050E8002F22F0B9
:1016F000010240E80027002FF5D184F8423025632D
:1017000020680C3050E8002F22F0100240E800233F
:10171000002BF5D166632046FFF708FFF8BDFFE711
:1017200005062BD5150629D594F841002128F5D1B9
:10173000A068B0F5805F01D12069B0B1206A411C7A
:101740002162216800784860E08C401E0004000C93
:10175000E084E3D12068C16821F08001C160206885
:10176000C16841F04001C160D8E7206A0088C0F339
:1017700008004860206A801C2062E5E74006CDD55D
:101780005006CBD5CA68204622F04002CA6084F8D1
:10179000413000F075F9C1E7C91D000870B50400BB
:1017A00004D094F84100002510B106E0012070BD7E
:1017B00084F84050204600F023F8242084F84100AB
:1017C0002068C16821F40051C160204600F038FC57
:1017D0002068016921F4904101612068416921F08C
:1017E0002A0141612068C16841F40051C16065640B
:1017F000202084F8410084F842006563002070BD19
:10180000F0B506463C4B02683C4802213C4D0024A2
:1018100085B09A424AD1826942F4804282618069ED
:1018200000F4804004900802CDE9000101200390FB
:1018300069462846FFF774F92815CDE90004694682
:1018400028460294FFF76CF92F4D2E48802701C5DA
:10185000102091C52C4845F810496C61AC61EC61D1
:10186000FFF7F8F818B1892128A000F0D6FCB5637D
:101870006E62254D234844351430C5E90004C5E99E
:1018800002472C616C61AC612846EC61FFF7E2F81D
:1018900018B199211DA000F0C0FCF563002211468B
:1018A00025206E62FFF7C8FA252021E01B4B9A42E3
:1018B00020D1C26942F40032C261C06900F4003034
:1018C00004900420CDE900010320039069462846D6
:1018D000FFF726F90820CDE900046946284602945E
:1018E000FFF71EF9002211462620FFF7A5FA262051
:1018F000FFF794FA05B0F0BD003801400010024037
:101900000008014044000240380100202E2E2F53D1
:1019100072632F75736172742E630000004400407F
:1019200090F84230202B01D00220704721B11AB12B
:101930000023036300F0E0BB01207047094810B5A5
:10194000017840780122084406490F3988730E3126
:10195000054800F059F8BDE810400222014902484C
:10196000FFF7DEBF0F000020A800002070472DE920
:10197000F843044690F841001F4616460D462028BD
:1019800002D00220BDE8F8837DB176B1002060640A
:10199000212084F84100FFF7B9F9A6848046E68447
:1019A000A068B0F5805F02D003E00120EAE720697B
:1019B00010B12E4600250EE000260CE080212046C6
:1019C00000F0E2FBA0B9AEB116F8010B2168486047
:1019D000E08C401EE084E08C43464FF0000200970C
:1019E0000028EBD14FF04001204600F0CDFB30B194
:1019F0000320C7E735F8020BC0F30800E6E7202014
:101A000084F841000020BDE770B5044690F841001D
:101A1000202801D0022070BD49B342B32162A284C4
:101A2000E28400206064212384F84130A56B114BCF
:101A3000AB62A56B104BEB62A56B104B2B63A36BDA
:101A40005863256813462A1DA06BFFF731F82168FB
:101A50006FF0400008602068143050E8001F41F02B
:101A6000800140E80012002AF5D1002070BD01205D
:101A700070BD0000C71E0008091F0008D91D00081E
:101A800070477047FEE7000004490A6822F47F426D
:101A90000A600A6842EA0020086070470C1801409A
:101AA0003EB520481E49032401608915816000214C
:101AB000017301754FF460220461C2614160FEF759
:101AC000F5FC18B1452118A000F0A7FB0A200090F2
:101AD00001200190029069461248FEF765FC18B19A
:101AE0004F2111A000F099FB0E20009002200190E0
:101AF00069460C48FEF758FC18B158210AA000F0BE
:101B00008CFB0F20CDE9000469460648FEF74CFC2B
:101B1000002803D0612104A000F07FFB3EBD00003F
:101B200000240140340000202E2E2F5372632F61B9
:101B300064632E6300000000114808B5416941F05C
:101B4000010141614069002200F00100009011464E
:101B50000B20FFF771F90B20FFF760F90022114607
:101B60000E20FFF769F90E20FFF758F90022114601
:101B70000F20FFF761F9BDE808400F20FFF74EB9CD
:101B8000001002402DE9F0412D4886B0816941F0F6
:101B900040018161816901F040010491816941F056
:101BA00010018161816901F010010491816941F0A6
:101BB00004018161816901F004010491816941F0AE
:101BC000080181618069DFF87C8000F008000490E2
:101BD00000224FF640714046FFF792F81A4F00225C
:101BE0000F213846FFF78CF840200125CDE900058C
:101BF00000240320CDE9024069464046FEF790FFED
:101C00000620CDE90004694610480294FEF788FFDB
:101C10000F200226CDE90005CDE902466946384687
:101C2000FEF77EFF4FF47F40CDE90005CDE9024687
:101C300069464046FEF774FF06B0BDE8F08100003B
:101C40000010024000180140000C0140001001404B
:101C50000D4810B50B4901604FF4966141600021B9
:101C600081600C22C160C0E904128161C161FFF78B
:101C700095FD002805D0BDE810404B2103A000F0E1
:101C8000CCBA10BD00380140A80000202E2E2F53E2
:101C900072632F75736172742E6300000D4810B566
:101CA0000B4901604FF416514160002181600C2204
:101CB000C160C0E904128161C161FFF76FFD0028B6
:101CC00005D0BDE810405E2103A000F0A6BA10BD0B
:101CD00000440040F00000202E2E2F5372632F7519
:101CE000736172742E630000FEE77047704770479F
:101CF00030B58BB00C460546282206A16846FEF793
:101D000011FA284600F0F4FA1DF80400FFF7BCFEB3
:101D10000BB030BD3F065B4F666D7D077F6F777CF4
:101D2000395E79713D760F0E753837545C736731C3
:101D300049783E1C7E646E590000000010B5FEF725
:101D4000EBFFBDE81040FFF7EDBB10B5012194B0EB
:101D50000804CDE900104200029202240491CDE96A
:101D600007404FF4201009906846FFF7F3F900B1DF
:101D7000FEE70F20CDE90A0400200C904FF4A0608C
:101D80000D900E9002210AA8FFF7FEF800B1FEE7C1
:101D90004FF4804011900F940FA8FFF77FF800B127
:101DA000FEE7FFF787F94FF47A71B0FBF1F0FFF728
:101DB000A5FB0420FFF75EFB00221146501EFFF733
:101DC0003BF814B010BD704710B5406A0021C185C2
:101DD000C184FFF7ACFB10BD70B5446A2068406950
:101DE00094F84110C0F3C0100025212904D118B186
:101DF000E584204600F0B4F82068406994F8421069
:101E0000C0F38010222904D118B1E585204600F0E6
:101E100080F8606C40F0100060642046FFF787FB9C
:101E200070BD10B50146406A096809684FF00002AC
:101E300089062ED4C28501680C3151E8003F23F495
:101E4000807341E80034002CF5D10168143151E869
:101E5000003F23F0010341E80034002CF5D1016874
:101E6000143151E8003F23F0400341E80034002CD6
:101E7000F5D1202180F84210016B012909D10168B8
:101E80000C3151E8003F23F0100341E80034002CEE
:101E9000F5D14263016B012902D0FFF74FFD10BD60
:101EA000818DFFF743FB10BD10B5406A01214163EE
:101EB000016B012902D0FFF759FD10BD818D490842
:101EC000FFF734FB10BD10B50146406A0968096888
:101ED000890616D40021C1840168143151E8002F0D
:101EE00022F0800241E80023002BF5D101680C317B
:101EF00051E8002F42F0400241E80023002BF5D1C9
:101F000010BDFFF7BDFD10BD10B5406AFFF7B9FD6C
:101F100010BD01680C3151E8002F22F4907241E8A5
:101F20000023002BF5D10168143151E8002F22F075
:101F3000010241E80023002BF5D1016B012909D1F1
:101F400001680C3151E8002F22F0100241E8002313
:101F5000002BF5D1202180F8421000210163704749
:101F600001680C3151E8002F22F0C00241E8002343
:101F7000002BF5D1202180F84110704708B590F86A
:101F80004210222901D0022008BD82684FF48053FC
:101F90009A4201D1016921B1816A9A421BD04AB1AA
:101FA0000AE00268816A5268C2F308020A80816A04
:101FB000891C08E0026972B10268526802F07F026F
:101FC0000A70816A491C8162C18D491E0904090C8D
:101FD000C18503D01BE002685268F1E70168CA6856
:101FE00022F02002CA600168CA6822F48072CA60C6
:101FF00001684A6922F001024A61202180F84210FA
:1020000000214163026B012A03D0FFF797FC0020F7
:1020100008BD016301680C3151E8002F22F0100265
:1020200041E80023002BF5D101680A68D20602D5E9
:102030000A6849680091818DFFF778FAE7E70000A8
:1020400070B5044600680169E26821F4405111430B
:1020500001612169A0680843616908432168CA6871
:1020600041F20C639A430243CA6020684169A26945
:1020700021F44071114341611E492068884202D118
:10208000FFF72EF801E0FFF71BF800EBC00101EBB2
:102090000012606864218000B2FBF0F3B3FBF1F33F
:1020A0006FF018067343B2FBF0F5B2FBF0F605EBE8
:1020B0008305322303EB0515B5FBF1F5B6FBF1F60D
:1020C00005F0F00505EB0615B2FBF0F6B2FBF0F0FB
:1020D000B0FBF1F06FF01802504306EB800003EB09
:1020E0000010B0FBF1F0216800F00F002844886078
:1020F00070BD00000038014038B581620446828519
:10210000002013466064222284F84220E56B1B4ABB
:10211000AA62E56B1A4AEA62E56B1A4A2A63E26B25
:1021200050630A462168E06B091DFEF7C1FC206878
:10213000016840680090206948B120680C3050E880
:10214000001F41F4807140E80012002AF5D1206898
:10215000143050E8001F41F0010140E80012002A4D
:10216000F5D12068143050E8001F41F0400140E8EC
:102170000012002AF5D1002038BD0000231E0008FF
:10218000A91E0008D91D00082DE9F0419846174600
:102190000E460446069D27E0681C25D02DB1FEF7AB
:1021A000B5FDA0EB0800A8421ED920680C3050E80D
:1021B000001F21F4D07140E80012002AF5D12068F8
:1021C000143050E8001F21F0010140E80012002AFD
:1021D000F5D1202084F8410084F84200002084F8E2
:1021E00040000320BDE8F0812068006836EA000066
:1021F00004D00020B842CFD00020F3E70120F9E757
:102200000148FFF795B90000A80000200148FFF73A
:102210008FB90000F0000020FEE7FEE70907090E75
:10222000002804DB00F1E02080F80014704700F083
:102230000F0000F1E02080F8141D704702E008C88C
:10224000121F08C1002AFAD170477047002001E030
:1022500001C1121F002AFBD170470000FEF764FD88
:10226000FFF773FDFEF726FF42F21071B0FBF1F0AD
:10227000FFF744F9FFF786FCFFF75EFCFFF7E8FC89
:10228000FFF70EFCFFF70AFD032216491648FEF77A
:1022900041FA14490222491F1448FFF741FB114C2F
:1022A0000025143C607800B16570A07810B1A5706D
:1022B000FEF73EF8E07810B1E570FEF743F82079BC
:1022C00010B12571FEF74EF8607910B16571FEF717
:1022D00019F8A07900B1A571E0790028E2D0E57184
:1022E000E0E700001400002034000020A8000020D7
:1022F00005490A6822F007020A600A6800F0070030
:1023000002430A60704700000C0C01400102020306
:102310000405060708090A0B0C0D0E0F101000002B
:102320000000000000000102030406070809000085
:1023300000000102030400005823000800000020F0
:10234000340000003C2200088C23000834000020E8
:102350008C0500004C220008000000000000000076
:1023600000000000000000000000AA55010002006B
:102370000300010203040506070800000100000035
:0C23800010000000000000000024F40029
:04000005080000ED02
:00000001FF
