:0F089400EF1FAC0670011E4C6004000080F222C2
:10081700AE071FEE60107C137D88ED1DAA047001E2
:060827001C4A60EC80F4A5
:01082D0022A8
:0E08A30012075A12077F1207337F320208171E
:10082E00D2A7D2C5C2A77F0A7E00120894C2C57F86
:06083E000A7E000208948E
:10085A00C2A7D2C57F0A7E00120894D2A77F0A7E59
:04086A0000020894EC
:1007C300C2A77F0A7E00120894D2C57F0A7E001258
:0E07D3000894C2C57F0A7E00120894D2A722A5
:1007FE00E4FFD2C530A709EFC394FA50030F80F47B
:09080E00C2C57F0A7E00020894B5
:020630008F4AEF
:10063200E4F54BC2C57F0A7E00120894E54A339264
:10064200A7E54A25E0F54A7F0A7E00120894D2C542
:100652007F0A7E00120894054BE54BB408D5C2C54B
:100662007F0A7E00120894D2C57F0A7E0002089497
:1007330012082E7F201206301207FEE4F5497425B5
:100743002549F8E6FF1206301207C30549E549C3F8
:07075300940840EA02085A75
:10075A00752200852723E528C413135403FD7C0062
:10076A00AE22E5237802C333CE33CED8F92DF52352
:05077A00EE3CF5222217
:10077F00AE22AF237C007D6412013CEF24D8FFEE44
:10078F003453FEE43401FDEC338F458E448D43F535
:02079F004222F4
:1007A100E5452428FFE54434ACFEE54334FEFDE590
:1007B1004234FFFCE47B64FAF9F812018A8E228F3D
:0207C1002322F1
:100509008F48E548B40132E5452464F545E43544AE
:10051900F544E43543F543E43542F5427FE07EA5F1
:100529007D017C00AB45AA44A943F8D312021C40C3
:10053900477545CC7544558039E548B4FF3AC3E55C
:10054900459464F545E5449400F544E5439400F584
:1005590043E5429400F5427FCC7E557D017C00AB9A
:1005690045AA44A943F8C312021C500C7545E0750D
:1005790044A57543017542001207A1AE22E523780F
:1005890002CEC313CE13D8F9F527E5235403FFC4CC
:0B059900333354C04410F52802073330
:1006A800E52C540FF521BF010CB40F05E4F52180AA
:1006B8000F0521800BE521700575210F800215219A
:0F06C800E521540FFFE52C54F04FF52C020733BA
:10022D00E47B64FAF9F8AF45AE44AD43AC4212013C
:10023D008A8F4B8E4A8D498C48E52C540FF521C37E
:10024D00940A500AAF217E00E4FB7D01801FE52159
:10025D0075F00A84FF7E00E4FB7D01FC1203B0E51E
:10026D002175F00A84AFF07E00E4FB7D02FC1203E1
:10027D00B0E47BE87A03F9F8AF4BAE4AAD49AC4830
:10028D0012018AEC4D4E4F700302033DE47BE87A78
:10029D0003F9F8AF4BAE4AAD49AC4812018AE4FB05
:1002AD007D05FC1203B0E47BE87A03F9F8AF4BAEA1
:1002BD004AAD49AC4812018AAC00AD01AE02AF03A4
:1002CD00E47B64FAF9F812018AE4FB7D06FC120363
:1002DD00B0E47BE87A03F9F8AF4BAE4AAD49AC48D0
:1002ED0012018AAC00AD01AE02AF03E47B64FAF9F2
:1002FD00F812018AAC00AD01AE02AF03E47B0AFA3D
:10030D00F9F812018A7B017D077C001203B0E47BB2
:10031D00E87A03F9F8AF4BAE4AAD49AC4812018A01
:10032D00AC00AD01AE02AF03E47B64FAF9F8805284
:10033D00E47B64FAF9F8AF4BAE4AAD49AC48120113
:10034D008AE4FB7D06FC1203B0E47B64FAF9F8AF96
:10035D004BAE4AAD49AC4812018AAC00AD01AE02BC
:10036D00AF03E47B0AFAF9F812018A7B017D077C61
:10037D00001203B0E47B64FAF9F8AF4BAE4AAD4915
:10038D00AC4812018AAC00AD01AE02AF03E47B0AAA
:10039D00FAF9F812018AAE02AF03E4FB7D08FC12F4
:0203AD0003B09B
:0103AF00222B
:0E08B100759D80E4F5BD75BCFF7F020208173F
:1008820075BCEF00000000E5BC30E4FB53BCEFAFE9
:01089200BDA8
:010893002242
:10045F001208828F46E546C394604030E546D39438
:10046F007F50291208828F46E546C39460500302DD
:10047F000508E546D3947F40030205081208828FD2
:10048F004612022DE546D394F040F122E546C3947F
:10049F0080402EE546D394A050271208828F46E560
:1004AF0046C394804053E546D394A0504C12088223
:1004BF008F4612022DE546D394F040F17547FF8029
:1004CF0033E546C394204031E546D3943F502A127A
:1004DF0008828F46E546C39420401EE546D3943FDD
:1004EF0050171208828F4612022DE546D394F04022
:0904FF00F1754701AF4712050930
:0105080022D0
:1006D70020B2147F327E0012089420B20512022D38
:1006E70080F8E4FF1206A820B3147F327E001208B8
:0F06F7009420B30512022D80F87F011206A8226D
:10086E003F065B4F666D7D077F6FBF86DBCFE6ED84
:04087E00FD87FFEF04
:0D08BF00E4F5977594FFF593F596F59522F5
:0A03B0008E4C8F4D8C4E8D4F8B50FC
:1003BA0078517C007D007BFF7A08796E7E007F0A87
:1003CA00120116785B7C007D007BFF7A0879787EC3
:1003DA00007F0A120116E54E7053E54F14B4070068
:1003EA00504B9003FA75F003A4C58325F0C58373B7
:1003FA0002040F02041302041702041B02041F0260
:10040A00042702042FC2A2800EC2A28012C2A280B6
:10041A0016C2A2801AD2A2C2A1C2A08016D2A2C2B9
:10042A00A1D2A0800ED2A2D2A1C2A08006D2A2D20C
:10043A00A1D2A0E5506004745B80027451254DF886
:10044A00E6F5807FF47E01120894E4F5807FF47E5D
:04045A0001120894EF
:01045E00227B
:100706000825C0111A50400288A5044200000000C6
:100716000222000002400000122E3F065B4F666D6B
:0C0726007D077F6F777C395E79714000A1
:0D08CC00759A1075D7E075D6FE438E142284
:100844001208B11208BFE4F5B4F5B375CAFFF5C9CF
:060854001208A3C2A3225A
:100672007594FFE4F59375960FF595F5B2F5B1F51E
:1006820092F591D288D2A8C2B8C2B743BA01120871
:10069200CCD20043AF0143B501D2AFC2A3D2A0D2A4
:0606A200A1D2A2F52D22F9
:030043000207E1D0
:1007E100C0E0E59A30E009859B2485242D539AFECB
:0D07F100E59A30E105C200539AFDD0E032D8
:030003000208D917
:0D08D900D2B7852D9B2000FDD200C2B732A2
:10000600120844120672532D0FE52D540FFFBF013F
:1000160006754000754102E54164024540700312D1
:10002600022DE52D540FFFBF020312045FE52D5488
:0A0036000FFFBF03D11206D780CCE4
:030000000205A452
:0C05A400787FE4F6D8FD7581640205EB59
:10004600E709F608DFFA8046E709F208DFFA803E9C
:1000560088828C83E709F0A3DFFA8032E309F60889
:10006600DFFA8078E309F208DFFA807088828C83F1
:10007600E309F0A3DFFA806489828A83E0A3F608A5
:10008600DFFA805889828A83E0A3F208DFFA804C7F
:1000960080D280FA80C680D4806980F28033801056
:1000A60080A680EA809A80A880DA80E280CA8033BF
:1000B60089828A83ECFAE493A3C8C582C8CCC58337
:1000C600CCF0A3C8C582C8CCC583CCDFE9DEE78007
:1000D6000D89828A83E493A3F608DFF9ECFAA9F086
:1000E600EDFB2289828A83ECFAE0A3C8C582C8CCDC
:1000F600C583CCF0A3C8C582C8CCC583CCDFEADEF5
:10010600E880DB89828A83E493A3F208DFF980CC56
:1001160088F0EF60010E4E60C388F0ED2402B4044F
:100126000050B9F582EB2402B4040050AF232345F6
:0601360082239000967385
:10013C00EF8DF0A4A8F0CF8CF0A428CE8DF0A42ED7
:02014C00FE2291
:10014E0075F008758200EF2FFFEE33FECD33CDCC68
:10015E0033CCC58233C5829BED9AEC99E5829840EB
:10016E000CF582EE9BFEED9AFDEC99FC0FD5F0D6C8
:10017E00E4CEFBE4CDFAE4CCF9A88222B800C1B9F2
:10018E000059BA002DEC8BF084CFCECDFCE5F0CB30
:10019E00F97818EF2FFFEE33FEED33FDEC33FCEB69
:1001AE0033FB10D703994004EB99FB0FD8E5E4F924
:1001BE00FA227818EF2FFFEE33FEED33FDEC33FC11
:1001CE00C933C910D7059BE99A4007EC9BFCE99A05
:1001DE00F90FD8E0E4C9FAE4CCFB2275F010EF2F4A
:1001EE00FFEE33FEED33FDCC33CCC833C810D7074A
:1001FE009BEC9AE899400AED9BFDEC9AFCE899F885
:0E020E000FD5F0DAE4CDFBE4CCFAE4C8F92217
:10021C00EB9FF5F0EA9E42F0E99D42F0E89C45F038
:01022C0022AF
:1005B000020006E493A3F8E493A34003F68001F25B
:1005C00008DFF48029E493A3F85407240CC8C3334C
:1005D000C4540F4420C8834004F456800146F6DF1B
:1005E000E4800B0102040810204080900706E47E9E
:1005F000019360BCA3FF543F30E509541FFEE49310
:10060000A360010ECF54C025E060A840B8E493A3D6
:10061000FAE493A3F8E493A3C8C582C8CAC583CA01
:10062000F0A3C8C582C8CAC583CADFE9DEE780BEB9
:0107320000C6
:00000001FF
