:1003770012523F065B4F666D7D077F6F777C395E54
:100387007971400002710000023900000235000057
:1003970002330001023C0001022A0000023700007C
:1003A70002400000022D000002260000022F001468
:1003B70002670064012500023E000002650000029A
:1003C70069000002730000022100000223000002FE
:1003D70028000010423F065B4F666D7D077F6F77F1
:0503E7007C395E797114
:0F000600759DFFE4F5BDF5BE75BC8C7597202286
:1004E400AE35AF367C037DE812011F7E007F64CFFA
:1004F400CDCFCECCCE12011F8E2A8F2BAE35AF3688
:100504007C007D6412011F7E007F0ACFCDCFCECC4C
:10051400CE12011F8E378F38AE35AF367C007D0A80
:0805240012011F8C408D4122E1
:10052C00AE2FAF307C037DE812011F7E007F64CFBD
:10053C00CDCFCECCCE12011F8E3E8F3FAE2FAF3023
:10054C007C007D6412011F7E007F0ACFCDCFCECC04
:10055C00CE12011F8E658F66AE2FAF307C007D0AE8
:08056C0012011F8C698D6A2247
:10057400AE67AF687C037DE812011F7E007F64CF05
:10058400CDCFCECCCE12011F8E738F74AE67AF6801
:100594007C007D6412011F7E007F0ACFCDCFCECCBC
:1005A400CE12011F8E218F22AE67AF687C007D0AB8
:0805B40012011F8C238D24228B
:1003ED0020B208E56C156C7002156BE53215327094
:1003FD00021531E5324531703CC3E56C9480E56BF7
:10040D0094005013C20030020EC202E52570047F25
:10041D000180027F008F25C3E56C9480E56B94000D
:10042D004007D200200202D202756B00756CC275B6
:06043D003100753264225B
:03002B000201824D
:10018200C0E0C0F0C083C082C0D075D008052EE5A3
:100192002E7002052D75A800D3E52E94C4E52D948A
:1001A200095003020228E57113FEE57213253AFF96
:1001B200E5393EFEAC71AD7212011F8E3C8F3D756A
:1001C2003900753A00757100757200752D00752E33
:1001D20000E53B540F6403602EAC3CAD3DAE33AF43
:1001E2003412011FAC0EAD0FE41200C47B667A66B6
:1001F20079A6783F120046500E0536E536700205A4
:10020200356329FF6328FF1204E4E53B540FFFBF67
:10021200030812052C1205748006752D00752E0038
:10022200853C33853D340572E57270020571AFBDC0
:10023200EFFEADBE7C00E42DFFEC3EFEEF253AF56D
:100242003AEE3539F53953BCEF43BC08E53B540F60
:100252006403600575A8A0800375A8A8D0D0D082D9
:07026200D083D0F0D0E032A0
:03001B0002049646
:10049600C0E0C0D075D000C00775A800C28E758DAB
:1004A600FF758B9B1203EDE5257011C3E52795308B
:1004B600E526952F5004B2B48002C2B4E525B401F6
:1004C60011D3E5279568E52695674004B2B4800206
:0E04D600C2B475A8A8D28ED007D0D0D0E03224
:10062300EFA2E713A2E71324FF92A2EF75F00412DF
:1006330000FDAEF0EEA2E71324FF92A1EF75F002E6
:0B0643001200FDAFF0EF24FF92A02298
:10064E001205F4E4F5807F06120623744225381253
:10065E000600E4F5807F0712062374422541F8E672
:09066E00F5807F0A7E00020608F7
:1002F5001205F4E4F5807F061206237442253812B0
:100305000600E4F5807F0712062374422541120694
:1003150000E525702BF580FF1206237442253F1258
:100325000600E4F5807F0112062374422566120655
:1003350000E4F5807F021206237442256A12060046
:10034500E5256401702BF580FF12062374422574A0
:10035500120600E4F5807F0112062374422522125D
:100365000600E4F5807F0212062374422524120656
:02037500002264
:1005F400E4F5807F051206237442252BF8E6F58086
:040604007F0A7E00EB
:10060800EF1FAA0670011E4A60107C007D3CED1D9C
:0A061800AA0470011C4A60E880F497
:0106220022B5
:0D001E00759A1075D7E075D6FE438E14223A
:1005BC007594FFE4F593759608F59575B210F5B141
:1005CC00759280F591D288D2A8C2B8C2B743BA014D
:1005DC0012001ED20143AF0143B501D2AFC2A3D268
:0805EC00A0D2A1D2A2F53B222E
:0C002E00E4FFE4FE0EBEFFFC0FBFFFF677
:01003A0022A3
:030043000206773B
:10067700C0E0E59A30E009859B2C852C3B539AFE18
:0D068700E59A30E105C201539AFDD0E03242
:030003000206945E
:0D069400D2B7853B9B2001FDD201C2B732D9
:100443001205BCD200D202756B00756CC275310007
:1004530075326475A8A8758910758DFF758B9BD24D
:100463008E120006533B0FE53B540FFFBF010312EF
:10047300064EE53B540FFFBF0209E52945286003FB
:10048300855C80BF03031202F57452253BF8E6F541
:030493008080D195
:1000460074F8CC6480CCC86480C8F58204604FC361
:10005600EB9FF5F0EA9E42F0E99D42F0E89C45F000
:10006600603C501DE5825FFFE582D313CB5BCBF48A
:100076002B5582FB50280ABA002409B900200880B3
:100086001DE5825BFBE582D313CF5FCFF4C3132F4D
:100096005582FF50090EBE00050DBD00010CC3EBD5
:1000A6009FF5F0EA9E42F0E99D42F0E89C45F0603B
:0900B60007CC4820E701B3EC225D
:1000BF0075F020800E75F010800575F0087D007EBC
:1000CF00007F003392D530D503120174EC3340100A
:1000DF00EF33FFEE33FEED33FDEC33FCD5F0ED22C5
:0E00EF00E5F0247EA2D513CC92E7CDCEFF2201
:0300000002026990
:0C026900787FE4F6D8FD7581750202B0C4
:1000FD00C2D530F707B2D563F0FF05F030E70CB28B
:10010D00D5F4048463F0FF05F080018430D502F44A
:02011D000422BA
:10011F00BC000BBE0029EF8DF084FFADF022E4CCC4
:10012F00F875F008EF2FFFEE33FEEC33FCEE9DEC8D
:10013F00984005FCEE9DFE0FD5F0E9E4CEFD22EDD3
:10014F00F8F5F0EE8420D21CFEADF075F008EF2F1D
:10015F00FFED33FD4007985006D5F0F222C398FD0E
:05016F000FD5F0EA22AB
:0E017400C3E49FFFE49EFEE49DFDE49CFC229C
:10027500020443E493A3F8E493A34003F68001F258
:1002850008DFF48029E493A3F85407240CC8C3338A
:10029500C4540F4420C8834004F456800146F6DF59
:1002A500E4800B0102040810204080900377E47E6F
:1002B500019360BCA3FF543F30E509541FFEE4934E
:1002C500A360010ECF54C025E060A840B8E493A315
:1002D500FAE493A3F8E493A3C8C582C8CAC583CA40
:1002E500F0A3C8C582C8CAC583CADFE9DEE780BEF8
:0103EC000010
:00000001FF
