:020000040800F2
:10000000900400200101000843170008471600086B
:10001000411700086D020008251A000800000000C2
:10002000000000000000000000000000471700086A
:100030006F0200080000000045170008491700087B
:100040001B0100081B0100081B0100081B01000820
:100050001B0100081B0100081B0100081B01000810
:100060001B0100081B0100081B0100081B01000800
:100070001B0100081B0100081B0100081B010008F0
:100080001B0100081B0100081B0100081B010008E0
:100090001B0100081B0100081B0100081B010008D0
:1000A0001B0100081B0100081B0100081B010008C0
:1000B0001B0100081B0100081B0100081B010008B0
:1000C0001B0100081B0100081B0100081B010008A0
:1000D0001B010008191A00081B0100081B01000879
:1000E0001B0100081B0100081B010008DFF80CD0F1
:1000F00000F040F800480047F11B00089004002081
:100100000648804706480047FEE7FEE7FEE7FEE7B1
:10011000FEE7FEE7FEE7FEE7FEE7FEE7C51700089D
:10012000ED000008D2B201E000F8012B491EFBD21D
:1001300070470022F6E710B513460A4604461946F2
:10014000FFF7F0FF204610BD30B50B4601460020FA
:100150002022012409E021FA02F59D4205D303FA89
:1001600002F5491B04FA02F52844151EA2F101020A
:10017000F1DC30BD064C074D06E0E06840F00103BD
:1001800094E8070098471034AC42F6D3FFF7B2FF6B
:10019000C41C0008E41C000870B5044600688168AF
:1001A000C943C90717D1816821F00101816000F0BE
:1001B0006BFC05460AE000BF00F066FC401B02280D
:1001C00004D920688068C043C00706D020688068D2
:1001D000C043C007F0D0002070BDA06A40F01000FE
:1001E000A062E06A40F00100E062012070BD000002
:1001F000F8B500260446009600688168C943C9071F
:100200002DD0816841F001018160164816490068CF
:10021000B0FBF1F000E0401E00900028FBD100F0A0
:1002200033FC054616E000BF00F02EFC401B022800
:1002300010D920688068C043C0070BD0A06A40F086
:100240001000A062E06A40F00100E06284F82460DF
:100250000120F8BD20688068C043C007E4D10020B9
:10026000F8BD00001000002040420F00FEE770477C
:10027000F8B500250446009590F8240001280BD01D
:10028000012084F824002046FFF786FF2046FFF770
:10029000AFFF060002D050E00220F8BDA06A20F4B3
:1002A000885040F00200A062022000F08BFC25493B
:1002B0000968B1FBF0F0400000E0401E009000280B
:1002C000FBD12068816841F00801816000F0DCFB0F
:1002D000074608E000F0D8FBC01B0A2803D92068B5
:1002E0008068000715D4206880680007F2D4206871
:1002F000816841F00401816000F0C6FB074612E00E
:1003000000F0C2FBC01B0A280DD920688068400796
:1003100009D5A06A20F0020040F01000A06284F825
:1003200024500120F8BD206880684007E8D4A06A06
:1003300020F0020040F00100A06284F82450304612
:10034000F8BD000010000020F8B50024009490F8DB
:1003500024202546012A12D0012280F824204A6850
:100360001F23072A0DD20668776B521E02EB82020A
:1003700093409F430B6893401F43776319E002202B
:10038000F8BD06680D2A0AD2376BD21F02EB820233
:1003900093409F430B6893401F43376309E0F76A1C
:1003A0000D3A02EB820293409F430B6893401F4338
:1003B000F7620A68072306680A2A0AD3F7680A3A26
:1003C00002EB420293409F438B6893401F43F760C8
:1003D00008E0376902EB420293409F438B689340E9
:1003E0001F4337610A68102A01D0112A20D1124B0D
:1003F00002689A4217D193681B0219D4936843F498
:10040000000393600968102912D10C490C4A09684D
:10041000B1FBF2F101EB8101490000E0491E0091BE
:100420000029FBD104E0816A41F0200181620124AE
:1004300080F824502046F8BD002401401000002020
:1004400040420F000068C06C704700002DE9F04189
:100450004FF0000704003D467ED0A06A002628B970
:10046000E66284F82460204600F07EF82046FFF71C
:1004700093FEA16AC90600D420B1A06A40F0100022
:10048000A06269E0A16A21F4885141F00201A162F1
:100490006268E169237B0A4347EA43010A43A16892
:1004A0004FF48077B94209D0012907D05FF00001ED
:1004B00094F814C0BCF1010F02D00AE03946F7E706
:1004C000F3B1A36A43F02003A362E36A43F001039C
:1004D000E3622368D3F804C02CF4694C4CEA010CA5
:1004E000C3F804C021688B68DFF870C003EA0C030E
:1004F00013438B60A168B9420BD0012909D00CE0ED
:10050000DFF85CC0A3690CEB43330B4343F4006199
:10051000DFE7218A0D05A5F580152168CB6A23F454
:1005200070032B43CB62216889680E4B19409142BE
:1005300008D1E662A16A21F0020141F00101A16245
:10054000BDE8F081A06A20F0020040F01000A06237
:10055000E06A40F00100E0620120F1E7FDF7E1FF11
:1005600000E0FFFFFE0E1FFF00B585B000210091E7
:1005700001910291039100680E49884218D10E48FA
:10058000816941F400718161816901F40071049114
:10059000816941F0100181618069694600F01000B5
:1005A00004901020009003200190044800F076F998
:1005B00005B000BD002401400010024000100140C1
:1005C0002DE9F84300270D460446009700F05CFA39
:1005D000804620688168C90508D5A06A40F02000DF
:1005E000A06284F824700120BDE8F8834168C90541
:1005F00003D4C06A10F4700F2AD0022000F0E2FA8F
:100600003B490968B1FBF0F62068036939490B42A0
:100610004FEA61014FEAA1121FD1C3684FEA611C82
:1006200013EA0C0F19D103690B4225D1C06810429F
:1006300022D1142023E0681C0AD02DB100F024FA46
:10064000A0EB0800A84203D920680068800725D5E0
:10065000206800688007EED52DE003690B4202D1C7
:10066000C168114206D0026923490A4206D1C06816
:10067000084203D1542002E0292000E0FC20464338
:10068000009816E0681C11D02DB100F0FDF9A0EB28
:100690000800A8420AD90098B04207D2A06A40F0E8
:1006A0000400A06284F8247003209DE70098401C99
:1006B0000090B042E6D321686FF012000860A06A93
:1006C00040F40070A06220688068C0F342400728B0
:1006D0000CD1207B50B9A06A20F48070A062A06A7F
:1006E000C00403D4A06A40F00100A06200207BE7B0
:1006F00010000020244992244992240070B5044639
:1007000090F8240001280DD0012084F82400204610
:10071000FFF76EFD02004FF0000005D084F82400C2
:10072000104670BD022070BDA16A40F201239943BA
:1007300041F48071A1621F4D23681F49AB4218D15B
:100740000E6816F4702F14D0A66A46F48016A662BE
:100750000E68760505D5A66A26F4005646F480563E
:10076000A662A66AF6040AD5E66A26F00606E662DE
:1007700006E0A66A26F48016A6625E68E9E7E062F3
:1007800084F824006FF00200186020688368C3F3C7
:100790004243072B05D1A84208D1096811F4702FF4
:1007A00004D0816841F480118160B9E7816841F427
:1007B000A001F9E7002801400424014010B590F899
:1007C00021100022022905D00421816380F8202015
:1007D000012010BD01680B6823F00E030B60016857
:1007E0000B6823F001030B6090F84030C46B0121CB
:1007F00001FA03F3636080F8211080F8202010468E
:1008000010BD000010B590F821100024022903D07B
:100810000421816301243DE001680A6822F00E0290
:100820000A6001680A6822F001020A601A4A016837
:10083000914201D1012121E0174A1432914201D1A4
:1008400010211BE0144A2832914201D1891515E08C
:10085000114A3C32914201D189140FE00E4A5032C4
:10086000914202D14FF4803108E00B4A6432914248
:1008700002D14FF4801101E04FF08071064A083A2E
:100880005160012180F82110002180F82010416B77
:1008900001B18847204610BD080002402DE9F84FFD
:1008A000DFF8B8910024A9F1040B23460F2709F1C2
:1008B000040AABF1040EC9E00125A5402A40AA4272
:1008C0007DD1674ED1F804C0ACEB0608B44532D0F8
:1008D00014DCBCF1030F3AD009DCBCF1000F2AD0C4
:1008E000BCF1010F1CD0BCF1020F31D11DE0BCF1F5
:1008F000110F17D0BCF1120F2AD119E0B8F5881FDB
:1009000019D006DCB8F5803F15D0B8F5801F1FD18F
:1009100011E0B8F5001F0ED0B8F5041F18D10AE099
:10092000CB6815E0CB681B1D12E0CB6808330FE0E5
:10093000CB680C330CE08B682BB1012B4FF0080314
:1009400003D0456104E0042302E0056100E00023D8
:10095000FF2A01D8064601E000F104064FEA8405AB
:1009600001D9A5F12005D6F8008007FA05FC28EA90
:100970000C0803FA05F548EA0508C6F800804D683A
:10098000ED0062D5374DAE6946F00106AE61AD6946
:1009900024F0030605F001050095334D06EB050C28
:1009A000DCF80850A607360F07FA06F825EA08050E
:1009B000DFF8B880404503D14FF0000817E044E06D
:1009C000DFF8AC80404502D14FF001080FE0DFF8BE
:1009D000A480404502D14FF0020808E0DFF898807B
:1009E000404502D14FF0030801E04FF0040808FA37
:1009F00006F848EA0508CCF808804D68D9F8006088
:100A0000ED024D4601D5164300E096432E604D6839
:100A1000DAF80060AD02554601D5164300E0964372
:100A20002E604D68DBF80060AD035D4601D51643CE
:100A300000E096432E604D68DEF80060ED037546D9
:100A400001D5164300E096432E60641C0D682A46CB
:100A5000E5407FF431AFBDE8F88F000008040140A5
:100A60000000111000100240000001400008014089
:100A7000000C014000100140001401400AB1016166
:100A800070470904FBE700000148806870470000D8
:100A90000400002002488168027811448160704798
:100AA00004000020074810B5016841F01001016002
:100AB000032000F075F80F2000F006F800F024F88D
:100AC000002010BD0020024070B50D4D04464FF4CB
:100AD0007A712878B1FBF0F00A490968B1FBF0F0AF
:100AE00000F0A4FB48B9102C07D200222146501E6A
:100AF00000F036F800206C6070BD012070BD000071
:100B000004000020100000200C4808B5816941F065
:100B100001018161816901F001010091C16941F028
:100B20008051C161C06900F0805000900448416864
:100B300021F0E06141F00071416008BD0010024009
:100B400000000140002809DB00F01F020121914054
:100B50004009800000F1E020C0F80011704700005B
:100B6000F0B40E4B1B680C46C3F30223C3F1070518
:100B7000042D00D90425191D072901D2002300E006
:100B8000DB1E012606FA05F1491E214099409E40D0
:100B9000761E16403143F0BC00F05ABF0CED00E069
:100BA000064900F0070208684FF6FF03184040EAC4
:100BB0000220034A10430860704700000CED00E07B
:100BC0000000FA0510B501460020234C012922D06F
:100BD000022939D010291DD161682268D20119D5A6
:100BE0001E48C1F38342C903805C0AD561681B4A71
:100BF000C1F34041921E515C194AB2FBF1F14843E6
:100C000001E0184948436168490203D440000321C8
:100C1000B0FBF1F010BD226AC2F30121012903D11A
:100C2000920701D5C80310BD022905D1626A920757
:100C300002D549F6404010BD0329FCD12168890343
:100C4000F9D54FF2244010BD00F02AF96168C1F3D4
:100C50008131491C4900DBE7001002409C1C000860
:100C600000127A0000093D002DE9F843054600789E
:100C7000354CC00754D0E0690026C00008D4E069B4
:100C800040F08050E061E069012600F08050009063
:100C90002E480168C90512D40168804641F480716C
:100CA0000160FFF7F1FE074605E000BFFFF7ECFE2D
:100CB000C01B642823D8D8F80000C005F6D5206AE8
:100CC00010F4407021D0A98801F4407181421CD0F9
:100CD000206A1F49012220F440700A6000220A6045
:100CE0002062C00711D0FFF7CFFE074641F28838D7
:100CF00008E000BFFFF7C8FEC11B414502D9032031
:100D0000BDE8F883206A8007F4D5206A696820F47A
:100D10004070084320621EB1E06920F08050E0611D
:100D20002878800705D56068A96820F4404008430A
:100D300060602878C00605D56068E96820F4800006
:100D4000084360600020DBE70010024000700040B4
:100D5000400442422DE9F0470F46050061D0434E62
:100D6000306800F00700B84209D2306820F0070070
:100D700038433060306800F00700B84251D128682D
:100D80003B4C810712D5400703D5606840F4E06012
:100D900060602878000703D5606840F460506060A8
:100DA0006068A96820F0F000084360602878C007F8
:100DB00028D06868012810D02168022810D089073F
:100DC00000292EDA616821F0030101436160FFF719
:100DD0005BFE804641F288390DE021688903EFE728
:100DE0008901EDE7FFF750FEA0EB0801494502D964
:100DF0000320BDE8F0876068696800F00C00B0EB84
:100E0000810FEFD1306800F00700B8420BD930688D
:100E100020F0070038433060306800F00700B84227
:100E200001D00120E5E72878400705D56068E9682A
:100E300020F4E060084360602878000706D5606809
:100E4000296920F4605040EAC100606000F038F881
:100E50006168084AC1F30311515CC8400649086043
:100E600006480068FFF730FE0020C2E7002002407D
:100E700000100240AC1C00081000002008000020F8
:100E80000448054900684968044AC1F30221515CDD
:100E9000C84070471000002000100240BC1C000831
:100EA0000448054900684968044AC1F3C221515CFD
:100EB000C84070471000002000100240BC1C000811
:100EC0000E4A51680E4801F00C03042B11D0082B78
:100ED0000FD10C48C1F38343C903C05C0AD55168E4
:100EE000084AC1F34041921E515C054A5043B0FB91
:100EF000F1F0704704494843704700000010024079
:100F000000127A008A1C000800093D002DE9F84F04
:100F1000040070D02078C04DC00749D06868C0F385
:100F20008100012807D06868C0F38100022809D138
:100F30006868C00306D52868800339D56068002832
:100F4000E7D035E06068B0F5803F0BD010B1B0F568
:100F5000A02F11D0286820F480302860286820F461
:100F6000802002E0286840F480302860606890B1FA
:100F7000FFF78AFD06460AE0286840F480202860D2
:100F8000F0E700BFFFF780FD801B642873D8286856
:100F90008003F7D50CE0FFF777FD064605E000BFBC
:100FA000FFF772FD801B6428F0D828688003F7D40F
:100FB00020789A4E80074FF001094FF0000839D58C
:100FC000686810F00C0F07D06868C0F38100022831
:100FD00009D16868C00306D42868800714D5206941
:100FE000012808D110E02069B0B1C6F80090FFF7E1
:100FF0004BFD074605E00AE1FFF746FDC01B02284E
:10100000C4D828688007F7D52868616920F0F800FF
:1010100040EAC10028600DE0C6F80080FFF734FD0B
:10102000074604E0FFF730FDC01B022823D82868DC
:101030008007F7D4207800072CD57948A169D9B169
:10104000C0F80090FFF720FD074604E0FFF71CFD05
:10105000C01B02280FD8686A8007F7D571484FF483
:10106000FA510068B0FBF1F0009000BF0098411EFB
:101070000091FAD20EE080E0C0F80080FFF704FD96
:10108000074604E0FFF700FDC01B022875D8686A18
:101090008007F7D42078400760D5E8690027C000B2
:1010A00008D4E86940F08050E861E869012700F061
:1010B000805000905C480168C90513D401688346DC
:1010C00041F480710160FFF7DFFC824606E000BF5B
:1010D000FFF7DAFCA0EB0A0064284ED8DBF800002A
:1010E000C005F5D5E06801280AD008B1052813D05D
:1010F000286A20F001002862286A20F0040002E03B
:10110000286A40F001002862E06841F2883B98B10B
:10111000FFF7BAFC82460BE0286A40F00400286220
:10112000EEE700BFFFF7B0FCA0EB0A0159455AD823
:10113000286A8007F6D50CE0FFF7A6FC824605E09A
:10114000FFF7A2FCA0EB0A0159454CD8286A80079A
:10115000F6D41FB1E86920F08050E861E06988B3F7
:101160006968C1F38101022944D00228C6F8608071
:1011700004D0FFF789FC044638E034E0FFF784FC34
:10118000074604E0FFF780FCC01B02282BD8286824
:101190008001F7D4206AB0F5803F05D16868A16866
:1011A00020F4003008436860D4E908010843696806
:1011B00021F4741108436860C6F86090FFF764FC7E
:1011C000044606E025E000BFFFF75EFC001B022896
:1011D00009D828688001F7D51BE000BFFFF754FC51
:1011E000001B022802D90320BDE8F88F286880017F
:1011F000F4D40EE00128F7D06868226A00F4803148
:10120000914204D1616A00F47010884201D001203B
:10121000EAE70020E8E70000001002400000424238
:1012200080044242100000200070004010B5401EB3
:10123000B0F1807F01D3012010BD4FF0E024606148
:101240000F21601700F004FC0020A061072020613E
:10125000002010BD70477047F8B501680446086863
:10126000CA684B6910F00F0F4FF0000559D003F01A
:10127000010602F49077374365D0C10705D0D10548
:1012800003D5616C41F001016164410705D5D907BF
:1012900003D0616C41F002016164810705D5D90773
:1012A00003D0616C41F004016164010707D502F0CD
:1012B0002001314303D0616C41F008016164616C2D
:1012C00000293AD0800604D5900602D5204600F0C9
:1012D000A9FA20684069616CC0F38010090700D446
:1012E00060B3204600F077FA20684069400621D5B7
:1012F0002068143050E8001F21F0400140E800123F
:10130000002AF5D1E06BA8B16D494163E06BFFF7AE
:1013100079FA002811D0E06B416B01B0BDE8F040D4
:10132000084783060FD593060DD52046BDE8F84043
:1013300000F078BA2046FFF78EFFF8BD2046FFF791
:101340008AFF6564F8BD266B2023012E7CD1C6067A
:101350007AD5D60678D508684868009048694FF075
:101360000206400640D5E16B086840680004000CA6
:10137000E8D0A28D8242E5D9E085886920282DD069
:1013800020680C3050E8001F21F4807140E8001202
:10139000002AF5D12068143050E8001F21F0010127
:1013A00040E80012002AF5D12068143050E8001FF0
:1013B00021F0400140E80012002AF5D184F84230C3
:1013C000256320680C3050E8001F21F0100140E830
:1013D0000012002AF5D1E06BFFF7F0F96663A08DEB
:1013E000E18D401A81B22AE0A08DE18D401A81B2D0
:1013F000E08D0028A6D00029A4D022680C3252E843
:10140000000F20F4907042E80007002FF5D120680B
:10141000143050E8002F22F0010240E80027002F8E
:10142000F5D184F84230256320680C3050E8002F55
:1014300022F0100240E80023002BF5D1666320461D
:10144000FFF708FFF8BDFFE705062BD5150629D5E0
:1014500094F841002128F5D1A068B0F5805F01D152
:101460002069B0B1206A411C21622168007848607F
:10147000E08C401E0004000CE084E3D12068C168C9
:1014800021F08001C1602068C16841F04001C16065
:10149000D8E7206A0088C0F308004860206A801CF2
:1014A0002062E5E74006CDD55006CBD5CA68204678
:1014B00022F04002CA6084F8413000F0C3F8C1E76E
:1014C000C717000870B5040004D094F84100002547
:1014D00010B106E0012070BD84F84050204600F0B5
:1014E00023F8242084F841002068C16821F40051C9
:1014F000C160204600F0F8F92068016921F49041AC
:1015000001612068416921F02A0141612068C168B8
:1015100041F40051C1606564202084F8410084F8E2
:1015200042006563002070BD30B585B00024009492
:101530000194029403940068184988422CD11848F9
:10154000816941F480418161816901F480410491A4
:10155000816941F0040181618069124D00F004004D
:1015600004904FF40070009002200190032003903B
:1015700069462846FFF792F92815CDE90004694627
:1015800028460294FFF78AF9002211462520FFF72A
:10159000E7FA2520FFF7D6FA05B030BD0038014044
:1015A000001002400008014070472DE9F84304464E
:1015B00090F841001F4616460D46202802D0022012
:1015C000BDE8F8837DB176B100206064212084F805
:1015D0004100FFF759FAA6848046E684A068B0F57A
:1015E000805F02D003E00120EAE7206910B12E46B7
:1015F00000250EE000260CE08021204600F0D0F906
:10160000A0B9AEB116F8010B21684860E08C401E0D
:10161000E084E08C43464FF0000200970028EBD1B5
:101620004FF04001204600F0BBF930B10320C7E77E
:1016300035F8020BC0F30800E6E7202084F84100EB
:101640000020BDE77047FEE73EB50021114800913C
:1016500001910F4A029102608160017301750124BA
:101660004FF460220461C2614160FEF7EFFE08B1F1
:1016700072B6FEE70E20CDE9000404200290694610
:101680000448FEF761FE002801D072B6FEE73EBDB9
:1016900000240140140000202DE9F04186B0002410
:1016A00024480094019402940394816941F010014C
:1016B0008161816901F010010491816941F040016B
:1016C0008161816901F040010491816941F0040167
:1016D0008161816901F004010491816941F008018F
:1016E00081618069144F00F008004FF47F45049039
:1016F000002229463846FFF7C1F9DFF84080002272
:1017000008214046FFF7BAF9009502260125039605
:10171000CDE9015469463846FFF7C0F80820CDE905
:101720000005CDE9024669464046FFF7B7F806B026
:10173000BDE8F0810010024000180140000C01409B
:10174000FEE7FEE770477047FFF7A4B930B593B0E6
:1017500028216846FEF7EDFC14210AA8FEF7E9FCF3
:101760000024022501200F9404900095102005907C
:1017700012944FF46010CDE908401194109407952D
:101780006846FFF7C3FB08B172B6FEE70F20CDE94C
:101790000A054FF48060CDE90C4002210AA80E949E
:1017A000FFF7D8FA08B172B6FEE74FF44040119047
:1017B0000F950FA8FFF758FA002801D072B6FEE780
:1017C00013B030BD704710B5406A0021C185C18497
:1017D000FFF741FD10BD01680C3151E8002F22F4E4
:1017E000907241E80023002BF5D10168143151E8D3
:1017F000002F22F0010241E80023002BF5D1016BFC
:10180000012909D101680C3151E8002F22F01002A2
:1018100041E80023002BF5D1202180F8421000215F
:101820000163704708B590F84210222901D00220C8
:1018300008BD82684FF480539A4201D1016921B1F9
:10184000816A9A421BD04AB10AE00268816A5268F2
:10185000C2F308020A80816A891C08E0026972B139
:101860000268526802F07F020A70816A491C816234
:10187000C18D491E0904090CC18503D01BE0026813
:101880005268F1E70168CA6822F02002CA60016864
:10189000CA6822F48072CA6001684A6922F00102B3
:1018A0004A61202180F8421000214163026B012A25
:1018B00003D0FFF779FE002008BD016301680C31F9
:1018C00051E8002F22F0100241E80023002BF5D14F
:1018D00001680A68D20602D50A6849680091818DBC
:1018E000FFF7B8FCE7E7000070B50446006801693F
:1018F000E26821F44051114301612169A068084365
:10190000616908432168CA6841F20C639A43024343
:10191000CA6020684169A26921F4407111434161A4
:101920001E492068884202D1FFF7BAFA01E0FFF7AA
:10193000A7FA00EBC00101EB00126068642180008F
:10194000B2FBF0F3B3FBF1F36FF018067343B2FB95
:10195000F0F5B2FBF0F605EB8305322303EB05153A
:10196000B5FBF1F5B6FBF1F605F0F00505EB061554
:10197000B2FBF0F6B2FBF0F0B0FBF1F06FF0180242
:10198000504306EB800003EB0010B0FBF1F0216840
:1019900000F00F002844886070BD0000003801404E
:1019A0002DE9F041984617460E460446069D27E06D
:1019B000681C25D02DB1FFF767F8A0EB0800A842FE
:1019C0001ED920680C3050E8001F21F4D07140E887
:1019D0000012002AF5D12068143050E8001F21F0D1
:1019E000010140E80012002AF5D1202084F84100CE
:1019F00084F84200002084F840000320BDE8F08114
:101A00002068006836EA000004D00020B842CFD039
:101A10000020F3E70120F9E70148FFF71DBC0000B3
:101A200044000020FEE700000FB4084B10B504A9E5
:101A300002AA039800F02CF8044602A9002000F046
:101A4000D1F8204610BC5DF814FB0000E51B00082F
:101A50000907090E002804DB00F1E02080F80014DB
:101A6000704700F00F0000F1E02080F8141D70476F
:101A700002E008C8121F08C1002AFAD17047704757
:101A8000002001E001C1121F002AFBD170470000B5
:101A90002DE9FF4F89B09B460446002506E0252826
:101AA0000BD05A460B999047641C6D1C2078002877
:101AB000F5D10DB02846BDE8F08F0027B8460122C9
:101AC000474900E0074314F8013F203B02FA03F0C6
:101AD0000842F7D120782E2819D114F8010F47F0C9
:101AE00004072A280ED06FF02F022078A0F13001D1
:101AF00009290CD808EB880102EB410100EB010831
:101B0000641CF2E70A98641C50F8048B0A90207851
:101B10000028CED0642808D0692806D075281ED0A9
:101B20005A460B9990476D1C58E00A994FF00A09E4
:101B300001C90A91002802DA40422D2102E039054C
:101B400004D52B218DF82010012103E0F90704D0E2
:101B50002021F7E78A4608AE0DE00021FAE70A994E
:101B60004FF00A0901C90A91F7E74946FEF7ECFA76
:101B7000303106F8011D0028F7D1ADEB060000F169
:101B80002009780701D44FF00108C84502DDA8EB11
:101B9000090000E000208046002706E008A85A4619
:101BA000C05D0B9990476D1C7F1C5745F6DB04E028
:101BB00030205A460B9990476D1CB8F10001A8F1EE
:101BC0000108F5DC05E016F8010B5A460B99904721
:101BD0006D1CB9F10001A9F10109F4DC641C65E791
:101BE000092801000A68531C0B6010707047000040
:101BF00088B0FEF757FFFFF7A9FDFFF74DFDFFF790
:101C000023FD1C481A490C2201604FF4E131416068
:101C100000218160C160C0E904128161C161FFF7E8
:101C200051FC08B172B6FEE712483038FEF720FBCF
:101C3000114D10483038FEF761FD0E483221303822
:101C4000FEF7BEFC0B483038FEF7FCFB044628606C
:101C500020216846FEF76DFA224608A16846FFF784
:101C6000E3FE6423202269460248FFF79EFCE0E77A
:101C700000380140440000200000002056616C75CF
:101C8000653A25640D0A00000102020304050607F7
:101C900008090A0B0C0D0E0F1010010202030405B7
:101CA000060708090A0B0C0D0E0F101000000000AB
:101CB00000000000010203040607080900000000FC
:101CC00001020304E41C00080000002014000000CE
:101CD000701A0008F81C0008140000207C040000A2
:101CE000801A000800000000010000001000000041
:081CF000000000000024F400D4
:04000005080000ED02
:00000001FF
